:020000040800F2
:1000000000500020B91800081D1500081F15000831
:100010002115000823150008251500080000000020
:10002000000000000000000000000000271500088C
:1000300029150008000000002B1500082D150008E8
:100040000119000801190008011900080119000828
:100050000119000801190008011900080119000818
:100060000119000801190008011900080119000808
:100070000119000801190008351500084515000888
:100080000119000801190008551500080119000898
:100090006515000801190008011900080119000878
:1000A00001190008011900080119000801190008C8
:1000B0000119000875150008011900080119000848
:1000C00001190008011900080119000801190008A8
:1000D0000119000885150008011900080119000818
:1000E00001190008011900080119000800000000AA
:1000F0000000000000000000000000000000000000
:0C01000000000000000000005FF808F1A3
:1001100081F0004102E000BF83F0004330B54FEAB8
:1001200041044FEA430594EA050F08BF90EA020F25
:100130001FBF54EA000C55EA020C7FEA645C7FEAB8
:10014000655C00F0E2804FEA5454D4EB5555B8BFDB
:100150006D420CDD2C4480EA020281EA030382EA4C
:10016000000083EA010180EA020281EA0303362DDE
:1001700088BF30BD11F0004F4FEA01314FF4801CB1
:100180004CEA113102D0404261EB410113F0004FC3
:100190004FEA03334CEA133302D0524263EB43037A
:1001A00094EA050F00F0A780A4F10104D5F1200E18
:1001B0000DDB02FA0EFC22FA05F2801841F1000173
:1001C00003FA0EF2801843FA05F359410EE0A5F147
:1001D00020050EF1200E012A03FA0EFC28BF4CF078
:1001E000020C43FA05F3C01851EBE37101F000452E
:1001F00007D54FF0000EDCF1000C7EEB00006EEB3B
:100200000101B1F5801F1BD3B1F5001F0CD34908C4
:100210005FEA30004FEA3C0C04F101044FEA44521B
:1002200012F5800F80F09A80BCF1004F08BF5FEAA2
:10023000500C50F1000041EB045141EA050130BD82
:100240005FEA4C0C404141EB0101013C28BFB1F594
:10025000801FE9D291F0000F04BF01460020B1FADF
:1002600081F308BF2033A3F10B03B3F120020CDAB2
:100270000C3208DD02F1140CC2F10C0201FA0CF090
:1002800021FA02F10CE002F11402D8BFC2F1200CF5
:1002900001FA02F120FA0CFCDCBF41EA0C019040AB
:1002A000E41AA2BF01EB0451294330BD6FEA0404F4
:1002B0001F3C1CDA0C340EDC04F11404C4F12002DF
:1002C00020FA04F001FA02F340EA030021FA04F3F1
:1002D00045EA030130BDC4F10C04C4F1200220FA48
:1002E00002F001FA04F340EA0300294630BD21FA86
:1002F00004F0294630BD94F0000F83F4801306BF4C
:1003000081F480110134013D4EE77FEA645C18BF3F
:100310007FEA655C29D094EA050F08BF90EA020FD6
:1003200005D054EA000C04BF1946104630BD91EACE
:10033000030F1EBF0021002030BD5FEA545C05D1D1
:100340004000494128BF41F0004130BD14F5800410
:100350003CBF01F5801130BD01F0004545F0FE4184
:1003600041F470014FF0000030BD7FEA645C1ABFB9
:10037000194610467FEA655C1CBF0B46024650EAF0
:10038000013406BF52EA033591EA030F41F400211C
:1003900030BD00BF90F0000F04BF0021704730B5A2
:1003A0004FF4806404F132044FF000054FF0000177
:1003B00050E700BF90F0000F04BF0021704730B538
:1003C0004FF4806404F1320410F0004548BF40420D
:1003D0004FF000013EE700BF42004FEAE2014FEA62
:1003E00031014FEA02701FBF12F07F4393F07F4F3D
:1003F00081F06051704732F07F4208BF704793F040
:100400007F4F04BF41F40021704730B54FF4607452
:1004100001F0004521F000411CE700BF50EA010255
:1004200008BF704730B54FF000050AE050EA0102FE
:1004300008BF704730B511F0004502D5404261EB6E
:1004400041014FF4806404F132045FEA915C3FF4AF
:10045000D8AE4FF003025FEADC0C18BF03325FEA4C
:10046000DC0C18BF033202EBDC02C2F1200300FAFD
:1004700003FC20FA02F001FA03FE40EA0E0021FA22
:1004800002F11444BDE600BF80F0004002E000BF6E
:1004900081F0004142001FBF5FEA410392EA030F6F
:1004A0007FEA226C7FEA236C6AD04FEA1262D2EBB9
:1004B0001363C1BFD218414048404140B8BF5B42BE
:1004C000192B88BF704710F0004F40F4000020F057
:1004D0007F4018BF404211F0004F41F4000121F06D
:1004E0007F4118BF494292EA030F3FD0A2F10102B7
:1004F00041FA03FC10EB0C00C3F1200301FA03F1F5
:1005000000F0004302D5494260EB4000B0F5000F17
:1005100013D3B0F1807F06D340084FEA310102F1D6
:100520000102FE2A51D2B1F1004F40EBC25008BF88
:1005300020F0010040EA03007047490040EB000052
:10054000013A28BFB0F5000FEDD2B0FA80FCACF153
:10055000080CB2EB0C0200FA0CF0AABF00EBC25080
:1005600052421843BCBFD0401843704792F0000F6E
:1005700081F4000106BF80F400000132013BB5E7C1
:100580004FEA41037FEA226C18BF7FEA236C21D037
:1005900092EA030F04D092F0000F08BF084670479C
:1005A00090EA010F1CBF0020704712F07F4F04D16A
:1005B000400028BF40F00040704712F100723CBF7D
:1005C00000F50000704700F0004343F0FE4040F4A7
:1005D000000070477FEA226216BF08467FEA236365
:1005E0000146420206BF5FEA412390EA010F40F450
:1005F000800070474FF0000304E000BF10F000439C
:1006000048BF40425FEA000C08BF704743F0964382
:1006100001464FF000001CE050EA010208BF70479D
:100620004FF000030AE000BF50EA010208BF704724
:1006300011F0004302D5404261EB41015FEA010C39
:1006400002BF84460146002043F0B64308BFA3F131
:100650008053A3F50003BCFA8CF2083AA3EBC25313
:1006600010DB01FA02FC634400FA02FCC2F1200232
:10067000BCF1004F20FA02F243EB020008BF20F069
:100680000100704702F1200201FA02FCC2F12002CF
:1006900050EA4C0021FA02F243EB020008BF20EAC4
:1006A000DC7070474FF0FF0C1CEAD0521EBF1CEAF2
:1006B000D15392EA0C0F93EA0C0F6FD01A4480EAE0
:1006C000010C400218BF5FEA41211ED04FF00063C9
:1006D00043EA501043EA5111A0FB01310CF00040F5
:1006E000B1F5000F3EBF490041EAD3715B0040EA1B
:1006F000010062F17F02FD2A1DD8B3F1004F40EBEB
:10070000C25008BF20F00100704790F0000F0CF0BD
:10071000004C08BF49024CEA502040EA51207F3A81
:10072000C2BFD2F1FF0340EAC250704740F400005C
:100730004FF00003013A5DDC12F1190FDCBF00F04D
:1007400000407047C2F10002410021FA02F1C2F1FB
:10075000200200FA02FC5FEA310040F1000053EA97
:100760004C0308BF20EADC70704792F0000F00F0E5
:10077000004C02BF400010F4000F013AF9D040EAEB
:100780000C0093F0000F01F0004C02BF490011F47F
:10079000000F013BF9D041EA0C018FE70CEAD1537D
:1007A00092EA0C0F18BF93EA0C0F0AD030F0004CFD
:1007B00018BF31F0004CD8D180EA010000F00040B1
:1007C000704790F0000F17BF90F0004F084691F06F
:1007D000000F91F0004F14D092EA0C0F01D14202A9
:1007E0000FD193EA0C0F03D14B0218BF084608D172
:1007F00080EA010000F0004040F0FE4040F40000BC
:10080000704740F0FE4040F4400070474FF0FF0C4E
:100810001CEAD0521EBF1CEAD15392EA0C0F93EA95
:100820000C0F69D0A2EB030280EA010C49024FEAE7
:10083000402037D04FF0805343EA111143EA1013A0
:100840000CF000408B4238BF5B0042F17D024FF458
:10085000000C8B4224BF5B1A40EA0C00B3EB510F33
:1008600024BFA3EB510340EA5C00B3EB910F24BF1C
:10087000A3EB910340EA9C00B3EBD10F24BFA3EBA1
:10088000D10340EADC001B0118BF5FEA1C1CE0D169
:10089000FD2A3FF650AF8B4240EBC25008BF20F01C
:1008A000010070470CF0004C4CEA50207F32C2BF70
:1008B000D2F1FF0340EAC250704740F400004FF00D
:1008C0000003013A37E792F0000F00F0004C02BF3E
:1008D000400010F4000F013AF9D040EA0C0093F008
:1008E000000F01F0004C02BF490011F4000F013B62
:1008F000F9D041EA0C0195E70CEAD15392EA0C0FCA
:1009000008D142027FF47DAF93EA0C0F7FF470AF01
:10091000084676E793EA0C0F04D14B023FF44CAF44
:1009200008466EE730F0004C18BF31F0004CCAD1D9
:1009300030F000427FF45CAF31F000437FF43CAF15
:100940005FE700BF4FF0FF3C06E000BF4FF0010C37
:1009500002E000BF4FF0010C4DF804CD4FEA400219
:100960004FEA41037FEA226C18BF7FEA236C11D063
:1009700001B052EA530C18BF90EA010F58BFB2EB16
:10098000030088BFC81738BF6FEAE17018BF40F096
:10099000010070477FEA226C02D15FEA402C05D14A
:1009A0007FEA236CE4D15FEA412CE1D05DF8040BCF
:1009B000704700BF844608466146FFE70FB5FFF762
:1009C000C9FF002848BF10F1000F0FBD4DF808ED1A
:1009D000FFF7F4FF0CBF012000205DF808FB00BF0B
:1009E0004DF808EDFFF7EAFF34BF012000205DF865
:1009F00008FB00BF4DF808EDFFF7E0FF94BF0120B2
:100A000000205DF808FB00BF4DF808EDFFF7D2FFAE
:100A100094BF012000205DF808FB00BF4DF808EDF1
:100A2000FFF7C8FF34BF012000205DF808FB00BFBE
:100A3000844641EA000313F0030349D1403A23D32B
:100A40000B6803604B6843608B688360CB68C3604E
:100A50000B6903614B6943618B698361CB69C36136
:100A60000B6A03624B6A43628B6A8362CB6AC3621E
:100A70000B6B03634B6B43638B6B8363CB6BC36306
:100A800040304031403ADBD230320BD30B68036048
:100A90004B6843608B688360CB68C3601030103153
:100AA000103AF3D20C3205D351F8043B40F8043B22
:100AB000043AF9D2043208D0D2071CBF11F8013B26
:100AC00000F8013B01D30B8803806046704700BFEC
:100AD000082A13D38B07B1D010F00303AED0C3F1B3
:100AE0000403D21ADB071CBF11F8013B00F8013BDD
:100AF000A4D331F8023B20F8023B9FE7043AD9D354
:100B0000013A11F8013B00F8013BF9D20B78037070
:100B10004B7843708B7883706046704770B54FF0A8
:100B2000FF0C4CF4E06C1CEA11541DBF1CEA135579
:100B300094EA0C0F95EA0C0F00F0DEF82C4481EAE1
:100B4000030621EA4C5123EA4C5350EA013518BF01
:100B500052EA033541F4801143F4801338D0A0FBEE
:100B600002CE4FF00005E1FB02E506F00042E0FB9B
:100B700003E54FF00006E1FB03569CF0000F18BFA1
:100B80004EF0010EA4F1FF04B6F5007F64F5407449
:100B900004D25FEA4E0E6D4146EB060642EAC621DC
:100BA00041EA55514FEAC52040EA5E504FEACE2E49
:100BB000B4F1FD0C88BFBCF5E06F1ED8BEF1004F4C
:100BC00008BF5FEA500E50F1000041EB045170BDC8
:100BD00006F0004646EA010140EA020081EA03010C
:100BE000B4EB5C04C2BFD4EB0C0541EA045170BD08
:100BF00041F480114FF0000E013C00F3AB8014F182
:100C0000360FDEBF002001F0004170BDC4F10004CA
:100C1000203C35DA0C341BDC04F11404C4F120054B
:100C200000FA05F320FA04F001FA05F240EA0200A6
:100C300001F0004221F0004110EBD37021FA04F6DC
:100C400042EB06015EEA430E08BF20EAD37070BD96
:100C5000C4F10C04C4F1200500FA04F320FA05F0F5
:100C600001FA04F240EA020001F0004110EBD370F7
:100C700041F100015EEA430E08BF20EAD37070BD67
:100C8000C4F1200500FA05F24EEA020E20FA04F340
:100C900001FA05F243EA020321FA04F001F00041EF
:100CA00021FA04F220EA020000EBD3705EEA430E60
:100CB00008BF20EAD37070BD94F0000F0FD101F08F
:100CC0000046400041EB010111F4801F08BF013CC8
:100CD000F7D041EA060195F0000F18BF704703F006
:100CE0000046520043EB030313F4801F08BF013D8D
:100CF000F7D043EA0603704794EA0C0F0CEA135549
:100D000018BF95EA0C0F0CD050EA410618BF52EA02
:100D10004306D1D181EA030101F000414FF0000008
:100D200070BD50EA410606BF1046194652EA430616
:100D300019D094EA0C0F02D150EA013613D195EA8A
:100D40000C0F05D152EA03361CBF104619460AD1D2
:100D500081EA030101F0004141F0FE4141F47001DC
:100D60004FF0000070BD41F0FE4141F4780170BDCC
:100D700070B54FF0FF0C4CF4E06C1CEA11541DBF31
:100D80001CEA135594EA0C0F95EA0C0F00F0A7F833
:100D9000A4EB050481EA030E52EA03354FEA013160
:100DA00000F088804FEA03334FF0805545EA131373
:100DB00043EA12634FEA022245EA111545EA10653B
:100DC0004FEA00260EF000419D4208BF964244F1D2
:100DD000FD0404F5407402D25B084FEA3202B61AF1
:100DE00065EB03055B084FEA32024FF480104FF4C5
:100DF000002CB6EB020E75EB030E22BFB61A754639
:100E000040EA0C005B084FEA3202B6EB020E75EBCB
:100E1000030E22BFB61A754640EA5C005B084FEA33
:100E20003202B6EB020E75EB030E22BFB61A754600
:100E300040EA9C005B084FEA3202B6EB020E75EB0B
:100E4000030E22BFB61A754640EADC0055EA060ECC
:100E500018D04FEA051545EA16754FEA06164FEA0F
:100E6000C30343EA52734FEAC2025FEA1C1CC0D1BB
:100E700011F4801F0BD141EA00014FF000004FF048
:100E8000004CB6E711F4801F04BF01430020B4F109
:100E9000FD0C88BFBCF5E06F3FF6AFAEB5EB030CC1
:100EA00004BFB6EB020C5FEA500C50F1000041EBBE
:100EB000045170BD0EF0004E4EEA113114EB5C048B
:100EC000C2BFD4EB0C0541EA045170BD41F480115E
:100ED0004FF0000E013C90E645EA060E8DE60CEA66
:100EE000135594EA0C0F08BF95EA0C0F3FF43BAF83
:100EF00094EA0C0F0AD150EA01347FF434AF95EA3A
:100F00000C0F7FF425AF104619462CE795EA0C0F1D
:100F100006D152EA03353FF4FDAE1046194622E7EA
:100F200050EA410618BF52EA43067FF4C5AE50EAC4
:100F300041047FF40DAF52EA43057FF4EBAE12E7B4
:100F40004FF0FF3C06E000BF4FF0010C02E000BF95
:100F50004FF0010C4DF804CD4FEA410C7FEA6C5C78
:100F60004FEA430C18BF7FEA6C5C1BD001B050EA1B
:100F7000410C0CBF52EA430C91EA030F02BF90EA06
:100F8000020F0020704710F1000F91EA030F58BFC5
:100F9000994208BF90422CBFD8176FEAE37040F027
:100FA000010070474FEA410C7FEA6C5C02D150EAC5
:100FB000013C07D14FEA430C7FEA6C5CD6D152EA80
:100FC000033CD3D05DF8040B704700BF8446104645
:100FD00062468C461946634600E000BF01B5FFF744
:100FE000B7FF002848BF10F1000F01BD4DF808ED14
:100FF000FFF7F4FF0CBF012000205DF808FB00BFE5
:101000004DF808EDFFF7EAFF34BF012000205DF83E
:1010100008FB00BF4DF808EDFFF7E0FF94BF01208B
:1010200000205DF808FB00BF4DF808EDFFF7CEFF8C
:1010300094BF012000205DF808FB00BF4DF808EDCB
:10104000FFF7C4FF34BF012000205DF808FB00BF9C
:101050004FEA410C7FEA6C5C02D150EA013C0AD1B4
:101060004FEA430C7FEA6C5C02D152EA033C02D1A6
:101070004FF0000070474FF0010070474FEA410207
:1010800012F5001215D211D56FF47873B3EB6252DA
:1010900012D94FEAC12343F0004343EA505311F001
:1010A000004F23FA02F018BF404270474FF0000093
:1010B000704750EA013005D111F0004008BF6FF0D1
:1010C000004070474FF00000704700BF0348044BDA
:1010D000834202D0034B03B118477047C406002077
:1010E000C4060020000000000548064B1B1AD90F5B
:1010F00001EBA301491002D0034B03B1184770471D
:10110000C4060020C40600200000000010B5064CF4
:10111000237843B9FFF7DAFF044B13B10448AFF368
:1011200000800123237010BDC406002000000000D1
:10113000E8AC000808B5054B1BB105490548AFF3FD
:101140000080BDE80840FFF7CFBF00BF00000000EF
:10115000C8060020E8AC000800B585B00023019364
:10116000029303931148124A0260836001220273C2
:1011700003754FF46021C1614360026100F0ECFE31
:1011800068B902230193012302930023039301A969
:10119000064800F05DFD28B905B05DF804FB00F0DD
:1011A0001DF9EEE700F01AF9F6E700BFE0060020AF
:1011B0000024014000B587B00023029303930493F9
:1011C00005930268154B9A4202D007B05DF804FB04
:1011D00003F56C439A6942F400729A619A6902F4C9
:1011E00000720092009A9A6942F004029A619B6927
:1011F00003F004030193019B04230293032303934D
:1012000002A9074801F084FD00221146122001F0D6
:10121000B5FB122001F0C2FBD7E700BF002401405C
:101220000008014008B50D480D4B036002234360E0
:1012300000238360C3604FF4602202614FF4801288
:101240004261037643768376C3760377437700F073
:1012500088FF00B908BD00F0C1F8FBE710070020C7
:101260000064004010B586B00023029303930493FA
:10127000059302681E4B9A4201D006B010BD03F5DB
:10128000D633DA6942F00072DA61DA6902F000728C
:101290000092009A9A6942F008029A619B6903F0F1
:1012A00008030193019B4FF480730293114C02A930
:1012B000204601F02DFD4FF40073029302230393A7
:1012C0000323059302A9204601F022FD0A4A536830
:1012D00023F4C04343F0E06343F4804353600022AF
:1012E0001146142001F04AFB142001F057FBC4E71B
:1012F00000640040000C01400000014000B583B0D4
:101300000E4B5A6942F001025A615B6903F0010316
:101310000193019B002211460E2001F02FFB0E20AD
:1013200001F03CFB002211460F2001F027FB0F20AB
:1013300001F034FB03B05DF804FB00BF0010024075
:101340002DE9F04188B00024049405940694079494
:101350001F4B9A6942F020029A619A6902F02002BA
:101360000192019A9A6942F004029A619A6902F024
:1013700004020292029A9A6942F008029A619B69F9
:1013800003F008030393039BDFF848802246E02123
:10139000404601F0CBFD104E22460121304601F0BF
:1013A000C5FDE023049301250595069402270797C0
:1013B00004A9404601F0ACFC0495059506940797F6
:1013C00004A9304601F0A4FC08B0BDE8F08100BFDC
:1013D0000010024000080140000C014072B6FEE718
:1013E00000B595B0282200210DEB020003F0E4FBCC
:1013F000002305930693079308930993019302939F
:101400000393049301220A924FF480330B930E92BC
:101410000222119212934FF4E01313930AA801F0E1
:10142000A1FDC8B90F23059302210691002307935C
:101430004FF480620892099305A801F0C5FF68B9CE
:10144000022301934FF40043039301A802F098F89C
:1014500030B915B05DF804FBFFF7C0FFFFF7BEFF22
:10146000FFF7BCFF80B584B000F072FAFFF7B8FF59
:10147000FFF766FFFFF742FFFFF76EFEFFF7D2FEB2
:1014800000F02EF900F086F903F096F803F04EF91B
:1014900003F0C8F903F0ECF803F078F90C4C20687D
:1014A00003F0E0F9A5792679E77994F805802068BA
:1014B000FEF792FF02460B46CDF80C80029701968C
:1014C0000095044803F0EEF9052000F065FAE1E725
:1014D000AC08002000AD000882B00E4B9A6942F0C3
:1014E00001029A619A6902F001020092009ADA6997
:1014F00042F08052DA61DB6903F080530193019B73
:10150000054A536823F0E06343F00073536002B070
:10151000704700BF0010024000000140FEE7FEE7F8
:10152000FEE7FEE7FEE770477047704708B500F03A
:1015300021FA08BD08B5024801F048FB08BD00BF0C
:101540008407002008B5024801F040FB08BD00BF39
:10155000C807002008B5024800F0F9FA08BD00BF2E
:10156000E006002008B5024801F09DF808BD00BF64
:101570001007002008B5024802F0A9F908BD00BF15
:101580003C07002008B5024802F0D4FE08BD00BFA9
:101590000C0800200120704708B503F0B1FB1623AA
:1015A00003604FF0FF3008BD08B54FF0FF31FFF783
:1015B000F3FFFEE770B50C461646002506E0AFF3D4
:1015C0000080214601F8010B01350C46B542F6DBDF
:1015D000304670BD70B50C461646002504E014F880
:1015E000010BAFF300800135B542F8DB304670BD2A
:1015F0004FF0FF3070474FF400534B6000207047AE
:10160000012070470020704710B503460C4A0D4971
:101610000D48006840B10C4800680344521A9342D8
:1016200006D8094A136010BD0748084C0460F2E769
:1016300003F066FB0C2303604FF0FF30F3E700BFBD
:10164000005000200004000038070020D00D0020CA
:101650007047000002680E4B9A4200D0704700B5F8
:1016600083B003F50333DA6942F00202DA61DB6921
:1016700003F002030193019B002211461D2001F09B
:101680007DF91D2001F08AF903B05DF804FB00BF6D
:101690000004004000B587B0002302930393049335
:1016A000059302680C4B9A4202D007B05DF804FB28
:1016B00003F503339A6942F008029A619B6903F0CB
:1016C00008030193019B022302930393059302A94C
:1016D000024801F01DFBE8E700040040000C014057
:1016E00000B58FB000230A930B930C930D930893CE
:1016F000099301930293039304930593069307932D
:101700002248234A026047224260836040F2E73267
:10171000C26003618023836102F0CAF938BB4FF4D1
:1017200080530A930AA9194802F0C2FA10BB17485D
:1017300002F0EAF908BB00230893099308A91348AB
:1017400002F0B2FBE0B96023019340F2F31302937D
:101750000023039305930C2201A90C4802F02EFAF2
:1017600088B90A48FFF796FF0FB05DF804FBFFF752
:1017700035FED4E7FFF732FED9E7FFF72FFEDAE7B1
:10178000FFF72CFEDFE7FFF729FEEAE73C07002022
:101790000004004008B50A480A4B03604FF4E133E7
:1017A000436000238360C36003610C224261836154
:1017B000C36102F069FC00B908BDFFF70FFEFBE74B
:1017C0000C0800200038014070B586B00023029359
:1017D0000393049305930268314B9A4201D006B0FB
:1017E00070BD044603F558439A6942F480429A61F9
:1017F0009A6902F480420092009A9A6942F00402C7
:101800009A619B6903F004030193019B4FF40073F9
:1018100002930223039303230593224E02A9304629
:1018200001F076FA4FF48063029300250395049546
:1018300002A9304601F06CFA1B481C4B036045605E
:1018400085608023C3600561456120238361C56194
:1018500001F0DCF8F0B9144BE3635C621448154BFB
:10186000036010234360002383608022C260036111
:1018700043618361C36101F0C9F870B90C4BA36384
:101880005C6200221146252001F078F8252001F045
:1018900085F8A4E7FFF7A2FDDDE7FFF79FFDEDE781
:1018A0000038014000080140C807002058000240ED
:1018B0008407002044000240FFF7CAFE0B480C4991
:1018C0000C4A002302E0D458C4500433C4188C429C
:1018D000F9D3094A094C002301E013600432A24203
:1018E000FBD303F013FAFFF7BDFD704700000020A3
:1018F000C406002058B10008C4060020CC0D00200A
:10190000FEE7000010B504460E4B1A784FF47A73C8
:10191000B3FBF2F30C4A1068B0FBF3F001F04CF8A3
:1019200068B90F2C01D901200AE0002221464FF0AE
:10193000FF3001F023F8054B1C60002000E001207F
:1019400010BD00BF0400002000000020080000209F
:1019500008B5074A136843F010031360032000F032
:10196000FBFF0F20FFF7CEFFFFF7B6FD002008BDFD
:1019700000200240034A1168034B1B780B4413609C
:10198000704700BF5408002004000020014B186875
:10199000704700BF5408002038B50446FFF7F6FF33
:1019A0000546B4F1FF3F02D0044B1B781C44FFF7FF
:1019B000EDFF401BA042FAD338BD00BF0400002059
:1019C000F0B583B005460C4600230193FFF7DEFF18
:1019D0002B689A6812F4807F23D107465A6812F464
:1019E000807F03D1DB6A13F4700F29D0504B1E683F
:1019F000022001F051FEB6FBF0F62B6819694D4A42
:101A0000114236D1D96802F15C42114231D11969D3
:101A1000494A114240D1DA68484B1A423ED0292344
:101A200041E0AB6A43F02003AB62002385F8243029
:101A3000012003B0F0BD2B681B6813F0020F0FD01C
:101A40002B681B6813F0020F4FD1B4F1FF3FF7D0A2
:101A5000002CF0D0FFF79AFFC31BA342F0D9EAE7AE
:101A6000AB6A43F00403AB62002385F82430032003
:101A7000DFE71969304A114204D1D96802F16E4298
:101A800011420DD019692E4A0A405AB9DA682C4B16
:101A900013405BB1FC2306E0292304E0142302E099
:101AA000542300E0FC2303FB06F607E05423FAE787
:101AB000019BB34210D3019B01330193019BB342BD
:101AC00013D2B4F1FF3FF6D0002CF1D0FFF75EFF48
:101AD000C01BA042EFD9EBE7AB6A43F00403AB6253
:101AE000002385F824300320A3E72B686FF012024F
:101AF0001A60AB6A43F40073AB622B689B6803F413
:101B00006023B3F5602F01D0002092E7287B60B9F5
:101B1000AB6A23F48073AB62AB6A13F4805F88D145
:101B2000AB6A43F00103AB6283E7002081E700BFAB
:101B30000000002024499224922449129224490052
:101B4000499224000368D86C70477047704770B59D
:101B5000044603681E685D6815F0200F17D016F064
:101B6000020F14D0826A12F0100F03D1826A42F47D
:101B7000007282629A6802F46022B2F5602F33D05C
:101B80002046FFF7E2FF23686FF012021A6015F09B
:101B9000800F22D016F0040F1FD0A36A13F0100F8D
:101BA00003D1A36A43F40053A3622268936803F449
:101BB000E043B3F5E04F2ED0536813F4806F05D1A6
:101BC000936803F46023B3F5602F21D0204600F022
:101BD000C7FA23686FF00C021A6015F0400F02D0AC
:101BE00016F0010F28D170BD227B002AC8D15A6897
:101BF00022F020025A60A36A23F48073A362A36ACE
:101C000013F4805FBCD1A36A43F00103A362B7E77A
:101C1000237B002BDAD1536823F080035360A36A3F
:101C200023F48053A362A36A13F4807FCED1A36A06
:101C300043F00103A362C9E7A36A43F48033A362BC
:101C40002046FFF783FF23686FF001021A60CAE79E
:101C500030B482B00022019290F82420012A00F0D2
:101C60008F800346012280F824204A68062A2DD856
:101C70000468606B02EB8202053A4FF01F0C0CFA0D
:101C800002FC20EA0C000D6805FA02F202436263CE
:101C90000A68092A38D91C68E06802EB42021E3A39
:101CA0004FF0070C0CFA02FC20EA0C008D6805FAD4
:101CB00002F20243E2600A68103A012A34D9002095
:101CC000002283F8242002B030BC70470C2A0DD8C3
:101CD0000568286B02EB8202233A1F24944020EA15
:101CE00004000C68944020432863D1E70568E86A43
:101CF00002EB8202413A1F24944020EA04000C685F
:101D000094402043E862C3E71C68206902EB42026A
:101D10004FF0070C0CFA02FC20EA0C008D6805FA63
:101D200002F202432261C6E71A681648824205D0D1
:101D30009A6A42F020029A620120C1E7906810F48A
:101D4000000F1BD1906840F4000090600A68102AD0
:101D500001D00020B4E70C4A12680C49A1FB021222
:101D6000920C02EB82025200019202E0019A013AC7
:101D70000192019A002AF9D10020A1E700209FE7F3
:101D80000220A0E7002401400000002083DE1B4366
:101D900030B583B00023019303689A6812F0010FF5
:101DA00033D104469A6842F001029A60184B1B68CE
:101DB000184AA2FB03239B0C019302E0019B013B09
:101DC0000193019B002BF9D1FFF7E0FD0546236845
:101DD0009B6813F0010F16D1FFF7D8FD431B022BB0
:101DE000F5D923689B6813F0010FF0D1A36A43F083
:101DF0001003A362E36A43F00103E362002384F863
:101E00002430012002E0002000E0002003B030BDBB
:101E10000000002083DE1B4390F82430012B68D0A3
:101E200010B50446012380F82430FFF7B1FF0028E5
:101E30005BD1A36A23F4407323F0010343F480735E
:101E4000A36223682C4A934227D0A26A22F480120C
:101E5000A2625A6812F4806F05D0A26A22F440523E
:101E600042F48052A262A26A12F4805F2BD0E26A2E
:101E700022F00602E262002284F824206FF00202BF
:101E80001A6023689A6802F46022B2F5602F1DD0B0
:101E90009A6842F480129A602AE0A2F58062526841
:101EA00012F4702FD1D0A26A42F48012A262134AB7
:101EB000526812F4806FD6D0A26A22F4405242F4E3
:101EC0008052A262CFE70022E262D4E70A4A93423C
:101ED00004D09A6842F4A0029A6009E0A2F58062F8
:101EE000526812F4702FD3D1F3E7002384F8243022
:101EF00010BD0220704700BF0028014000240140AF
:101F000038B503689A6812F0010F01D1002038BD7E
:101F100004469A6822F001029A60FFF737FD0546F1
:101F200023689B6813F0010F13D0FFF72FFD431BAD
:101F3000022BF5D923689B6813F0010FF0D0A36A38
:101F400043F01003A362E36A43F00103E36201205C
:101F5000DDE70020DBE7000000287BD070B50446F9
:101F6000836A002B4DD02046FFF7CAFFA36A13F007
:101F7000100369D1002867D1A26A22F4885222F0A6
:101F8000020242F00202A2626268E1690A43217B16
:101F900042EA4102A568B5F5807F02D0012D36D016
:101FA0001D46267D012E35D02668716821F46941D1
:101FB000294371602568AE68274931401143A96003
:101FC000A168B1F5807F01D0012902D12369013BCD
:101FD0001B052568E96A21F470010B43EB62236855
:101FE00099681E4B0B409A4225D0A36A23F0120336
:101FF00043F01003A362E36A43F00103E3620120AC
:1020000027E0C36280F82430FFF7D4F8ABE74FF441
:102010008075C6E731B9A169013945EA413141F41A
:102020000065C1E7A16A41F02001A162E16A41F0C7
:102030000101E162B8E70023E362A36A23F003032E
:1020400043F00103A36204E0A36A43F01003A36218
:10205000012070BD01207047FDF7E1FFFE0E1FFF5C
:1020600070B582B00023019390F82430012B72D018
:102070000446012380F82430FFF742FF2046FFF793
:1020800087FE054628B1002384F82430284602B094
:1020900070BDA36A23F4885323F0020343F00203C4
:1020A000A3622E4B1E68022001F0F6FAB6FBF0F692
:1020B0007600019602E0019B013B0193019B002BFE
:1020C000F9D12268936843F008039360FFF75EFC40
:1020D000064623689A6812F0080F14D0FFF756FCE2
:1020E000801B0A28F5D923689B6813F0080FF0D0ED
:1020F000A36A23F0120343F01003A362002384F8C1
:1021000024300125C2E79A6842F004029A60FFF782
:102110003DFC064623689B6813F0040F14D0FFF7BC
:1021200035FC801B0A28F5D923689B6813F0040F3F
:10213000F0D0A36A23F0120343F01003A36200233C
:1021400084F824300125A1E7A36A23F0030343F0B8
:102150000103A36297E7022598E700BF0000002073
:102160007047002800F0A18038B5044690F8203070
:10217000D3B12268136843F001031360FFF706FC34
:10218000054623685A6812F0010F10D1FFF7FEFBD5
:10219000401B0A28F5D9636A43F4003363620523C0
:1021A00084F82030012038BDFFF75CF8E1E71A68B9
:1021B00022F002021A60FFF7E9FB054623685A681D
:1021C00012F0020F0DD0FFF7E1FB401B0A28F5D9F2
:1021D000636A43F400336362052384F820300120EE
:1021E000E1E7227E012A3DD01A6822F080021A60BF
:1021F000637E012B3BD02268136823F040031360F9
:10220000A37E012B39D02268136823F020031360CA
:10221000E37E012B37D02268136843F0100313606C
:10222000237F012B35D02268136823F00803136045
:10223000637F012B33D02268136823F004031360FB
:10224000A368E26813432269134362691343626817
:10225000013A21681343CB6100206062012384F8B6
:102260002030A0E71A6842F080021A60C0E72268B6
:10227000136843F040031360C2E72268136843F019
:1022800020031360C4E72268136823F0100313606F
:10229000C6E72268136843F008031360C8E72268A2
:1022A000136843F004031360CAE701207047026813
:1022B00090F82030013BDBB2012B05D9436A43F48F
:1022C000802343620120704710B5D2F8003243F0FA
:1022D0000103C2F800324B6903F01F03012000FA2A
:1022E00003F3D2F81C026FEA030C20EA0300C2F8E1
:1022F0001C02C869C0B9D2F80C020CEA0000C2F88E
:102300000C028C884869D1F80CE044EA0E4448304D
:1023100042F830400C884869D1F808E044EA0E449D
:10232000483002EBC0004460C86901281AD08869AF
:1023300088BBD2F804020CEA0000C2F80402086963
:1023400078BBD2F814020CEA0000C2F81402096A41
:1023500001292CD0D2F8003223F00103C2F8003258
:10236000002010BDD2F80C021843C2F80C028C8871
:102370004869D1F800E044EA0E44483042F8304061
:102380008C894869D1F808E044EA0E44483002EBF1
:10239000C0004460CBE7D2F804021843C2F804023C
:1023A000CDE7D2F814021843C2F81402CFE7D2F8EE
:1023B0001C120B43C2F81C32CCE770B5044690F8EF
:1023C0002050EDB2012D06D0436A43F4002343624E
:1023D0000125284670BD022380F82030026813686A
:1023E00023F001031360FFF7D1FA064623685B6808
:1023F00013F0010F0CD0FFF7C9FA831B0A2BF5D994
:10240000636A43F400336362052384F82030E0E715
:1024100000256562DDE730B590F820C00468A46847
:102420000CF1FF3C5FFA8CFCBCF1010F62D814F098
:10243000E05F59D0C4F3016C012404FA0CF41C6071
:102440008B68002B3DD10D68CB68046843EA455585
:102450000CF118031B01E55003680C690CF1180E10
:1024600003EB0E135C600B7D012B35D0D179937992
:102470001B0443EA0163517943EA0123147901689B
:10248000234301EB0C11C1F88C31D17893781B04F4
:1024900043EA0163517843EA0123117802680B4350
:1024A00002EB0C12C2F8883102680CF1180C4FEAEA
:1024B0000C1C52F80C3043F0010342F80C300020A1
:1024C0001DE04C6843EAC403CC6823430CF11804B4
:1024D000240105682B51BFE7036803EB0E1359680D
:1024E00041F480715960C1E7436A43F400134362C9
:1024F000012004E0436A43F480234362012030BD9D
:1025000090F820C00CF1FF3C5FFA8CFCBCF1010F8D
:1025100000F2A58030B451B90468E46814F0030FE8
:1025200010D1436A43F40013436201207EE0046843
:10253000246914F0030F05D1436A43F40013436286
:10254000012073E0056801F11B0424012C5904F0FB
:1025500004049460002C6BD1056801F11B04240174
:102560002C59640D1460046801F11B0C4FEA0C1C1B
:1025700054F80C4004F00204D4600468A444DCF86D
:10258000045015F0080F5BD008241461046801F1B1
:102590001B0C04EB0C146468C4F3072494610468F6
:1025A00004EB0C146468240C5461026802EB011201
:1025B000D2F8B8211A70026802EB0112D2F8B821E1
:1025C000C2F307225A70026802EB0112D2F8B82156
:1025D000C2F307429A70026802EB0112D2F8B821E6
:1025E000120EDA70026802EB0112D2F8BC211A71E5
:1025F000026802EB0112D2F8BC21C2F307225A7121
:10260000026802EB0112D2F8BC21C2F307429A71B0
:10261000026802EB0112D2F8BC21120EDA71C1B9C4
:102620000268D36843F02003D360002030BC7047B9
:10263000056801F11B0424012C59E408546092E759
:1026400001F11B0504EB0514646804F00F04146128
:102650009CE70268136943F020031361E5E7436ACE
:1026600043F4802343620120704790F82030013BFF
:10267000DBB2012B05D9436A43F480234362012076
:102680007047026853690B435361002070477047DD
:102690007047704770477047704770477047704782
:1026A0007047704770472DE9F84F054603685C692D
:1026B000D3F804809F68D3F80CB0D3F810A0D3F8F7
:1026C000189014F001063BD017F0010616D0012235
:1026D0009A6017F0020F08D117F0040F0CD117F011
:1026E000080606D04FF4805608E0FFF7D0FF00261A
:1026F00004E0FFF7CFFF01E04FF4006617F4807F9E
:102700000DD02B684FF480729A6017F4007F40F070
:10271000868017F4806F00F0868046F4005617F428
:10272000803F0DD02B684FF480329A6017F4003F41
:1027300040F0838017F4802F00F0838046F4004639
:1027400014F0080F07D01BF0100F04D046F40076E9
:102750002B681022DA6014F0040F02D01BF0080F6F
:1027600079D114F0020F04D02B68DB6813F0030F4B
:1027700078D114F0400F07D01AF0100F04D046F4AF
:1027800080662B6810221A6114F0200F02D01AF014
:10279000080F6BD114F0100F04D02B681B6913F0D5
:1027A000030F6AD114F4003F02D018F0100F68D163
:1027B00014F4803F02D018F0080F69D114F4004FD0
:1027C0007AD018F0040F74D014F4807F04D019F07C
:1027D000010F01D046F0010614F4007F04D019F077
:1027E000020F01D046F0020614F4806F04D019F0F5
:1027F000040F01D046F0040614F4006F59D019F00C
:10280000700956D0B9F1400F65D058D8B9F1200FF2
:102810005ED0B9F1300F42D146F0200644E02846A0
:10282000FFF736FF7BE717F4006F02D046F48046CF
:1028300075E72846FFF72FFF71E72846FFF729FFC6
:102840007EE717F4002F02D046F4803678E728465A
:10285000FFF722FF74E72B680822DA602846FFF7AB
:102860001CFF7EE7284602F013F882E72B68082257
:102870001A612846FFF713FF8CE72846FFF70EFF83
:1028800090E72B6810225A602846FFF709FF8FE770
:102890002B6808225A602846FFF703FF8EE7B9F13C
:1028A000100F01D146F008062A68936923F07003DF
:1028B00093612B6804225A609EB9BDE8F88FB9F184
:1028C000500F0BD0B9F1600FEED146F48076EBE7F4
:1028D00046F01006E8E746F04006E5E746F08006D9
:1028E000E2E76B6A33436B622846FFF7DBFEE4E7FF
:1028F000002808DB0901C9B200F1604000F5614021
:1029000080F80013704700F00F000901C9B2014BB5
:102910001954704714ED00E000B500F00700C0F155
:10292000070CBCF1040F28BF4FF0040C031D062B4D
:102930000FD9C31E4FF0FF3E0EFA0CF021EA000142
:1029400099400EFA03FE22EA0E0241EA02005DF807
:1029500004FB0023EEE70000074AD36823F4E0639A
:102960001B041B0C000200F4E060034343F0BF6350
:1029700043F40033D360704700ED00E010B5044627
:10298000054BD868C0F30220FFF7C6FF014620467A
:10299000FFF7AEFF10BD00BF00ED00E0002807DB31
:1029A00000F01F02400901239340024A42F8203000
:1029B000704700BF00E100E00138B0F1807F0BD22A
:1029C0004FF0E0235861054AF02182F823100020DF
:1029D000986107221A6170470120704700ED00E0FE
:1029E00030B40124056CAC40C56B6C600468636056
:1029F0004368102B05D0036899600368DA6030BC27
:102A0000704703689A600368D960F8E760B310B450
:102A100002460168154B0B441548A0FB03031B0934
:102A20009B001364134BD363022382F821300868A0
:102A300020F47F5020F03000536894682343D4681A
:102A40002343146923435469234394692343D4697A
:102A5000234303430B6000209063012382F821305D
:102A600082F8200010BC704701207047F8FFFDBFBE
:102A7000CDCCCCCC0000024038B5044690F8200004
:102A8000012832D0012084F8200094F82100C0B23F
:102A9000012804D0002384F82030022038BD022011
:102AA00084F821000020A0632568286820F0010038
:102AB00028602046FFF794FFE36A5BB12268136841
:102AC00043F00E0313602268136843F001031360A0
:102AD0000020E3E72268136823F0040313602268F0
:102AE000136843F00A031360EDE70220D6E70346BC
:102AF00090F82120D2B2022A06D00422826300225A
:102B000080F820200120704701680A6822F00E0238
:102B10000A6001680A6822F001020A60026CC06B58
:102B2000012101FA02F2426083F82110002083F8AB
:102B30002000704708B590F82130DBB2022B03D09B
:102B400004238363012008BD0268136823F00E0389
:102B500013600268136823F0010313600368194AC5
:102B6000934214D0143293421FD0143293421ED099
:102B7000143293421ED0143293421ED01432934228
:102B800002D04FF0807203E04FF4801200E0012287
:102B90000D4B5A60012380F82130002380F820304B
:102BA000436B6BB198470020CDE71022F0E74FF45C
:102BB0008072EDE74FF48052EAE74FF48032E7E7A6
:102BC0000020C0E7080002400000024038B5C36B97
:102BD0001A6804682568016C04238B40134235D0C1
:102BE00015F0040F32D0236813F0200F03D12368AF
:102BF00023F0040323600368434A934214D0143241
:102C0000934218D01432934217D01432934217D003
:102C10001432934217D01432934202D04FF08062A4
:102C200003E04FF4800200E00422384B5A60C36A8C
:102C300003B1984738BD4022F7E74FF48062F4E7CC
:102C40004FF48042F1E74FF48022EEE702238B40FD
:102C500013423CD015F0020F39D0236813F0200F37
:102C600006D1236823F00A032360012380F8213072
:102C70000368254A934214D0143293421CD0143274
:102C800093421BD0143293421BD0143293421BD078
:102C90001432934202D04FF0007203E04FF400125E
:102CA00000E00222194B5A60002380F82030836A2A
:102CB000002BBFD09847BDE72022F3E74FF4007206
:102CC000F0E74FF40052EDE74FF40032EAE7082353
:102CD0008B401342AED015F0080FABD0236823F021
:102CE0000E032360026CC16B012303FA02F24A60F7
:102CF000836380F82130002380F82030036B002BA1
:102D000098D0984796E700BF0800024000000240B4
:102D100070B582B00024A446A2E07E4DAB4210D034
:102D200007D97D4DAB420CD005F58035AB4208D0BC
:102D300013E0A5F58015AB4203D005F57025AB4235
:102D400007D18B68002B55D0012B4ED0426108244F
:102D500003E0A5F58015AB42F3D0BEF1FF0F4BD8D1
:102D600006464FEA8C0233680F25954023EA050397
:102D700004FA02F2134333604B6813F0805F6DD0A6
:102D8000664B9A6942F001029A619B6903F0010364
:102D90000193019B4FEA9C02951C614B53F82560FF
:102DA0000CF00305AD000F23AB4026EA03065D4B94
:102DB000984228D003F58063984200F08D8003F597
:102DC0008063984200F08A8003F58063984218D0AF
:102DD000042319E0CC68C0E7CC680434BDE7CC68B4
:102DE0000834BAE7CC680C34B7E702610824B4E7CA
:102DF0000024B2E70424B0E7061DACF108029200FB
:102E0000B1E7032300E00023AB4033430232444DDB
:102E100045F822304B6813F4801F61D0424A936812
:102E200043EA0E0393604B6813F4001F5ED03E4AE2
:102E3000D36843EA0E03D3604B6813F4003F5BD0C2
:102E4000394A536843EA0E0353604B6813F4803FDA
:102E500058D0354A136843EA0E0313600CF1010C95
:102E60000B6833FA0CF253D0012202FA0CF203EA97
:102E7000020E32EA0303F1D14B68122B3FF64DAF3D
:102E8000122B3FF66AAF01A555F823F0432D000839
:102E9000D52D0008DF2D0008F12D00085B2D00085E
:102EA0005B2D00085B2D00085B2D00085B2D0008E2
:102EB0005B2D00085B2D00085B2D00085B2D0008D2
:102EC0005B2D00085B2D00085B2D00085B2D0008C2
:102ED000D92D0008E52D0008012395E7022393E78B
:102EE000114A936823EA0E0393609CE70E4AD36865
:102EF00023EA0E03D3609FE70B4A536823EA0E03CD
:102F00005360A2E7084A136823EA0E031360A5E79B
:102F100002B070BD0000221000003110001002400D
:102F20000000014000080140000401400AB10161B5
:102F3000704709040161704782B0084B1B68084A5A
:102F4000A2FB03235B0A00FB03F3019300BF019B79
:102F50005A1E0192002BF9D102B0704700000020E8
:102F6000D34D6210002800F0F18170B582B00446A4
:102F7000036813F0010F2CD0994B5B6803F00C032E
:102F8000042B1DD0964B5B6803F00C03082B12D06A
:102F90006368B3F5803F41D0002B55D103F18043E6
:102FA00003F504331A6822F480321A601A6822F496
:102FB00080221A6037E08A4B5B6813F4803FE7D0C9
:102FC000874B1B6813F4003F03D06368002B00F0AD
:102FD000BF81236813F0020F75D0814B5B6813F03B
:102FE0000C0F5FD07E4B5B6803F00C03082B54D0B2
:102FF0002369002B00F08A807A4B01221A60FEF7C9
:10300000C5FC0546764B1B6813F0020F75D1FEF721
:10301000BDFC401B0228F5D903209EE1704A1368CD
:1030200043F480331360636843B3FEF7AFFC054697
:103030006B4B1B6813F4003FCBD1FEF7A7FC401B82
:103040006428F5D9032088E1B3F5A02F09D0644B9B
:103050001A6822F480321A601A6822F480221A60F8
:10306000E1E703F18043A3F53C331A6842F4802280
:103070001A601A6842F480321A60D4E7FEF786FCC0
:103080000546574B1B6813F4003FA2D0FEF77EFCA9
:10309000401B6428F5D903205FE1514B5B6813F4B2
:1030A000803FA5D14E4B1B6813F0020F03D023695C
:1030B000012B40F04F814A4A136823F0F8036169FD
:1030C00043EAC1031360236813F0080F33D0A369E8
:1030D000002B5CD0434B0122C3F88024FEF756FC42
:1030E00005463F4B5B6A13F0020F21D1FEF74EFC01
:1030F000401B0228F5D903202FE1394A136823F039
:10310000F803616943EAC1031360DCE7354B002231
:103110001A60FEF73BFC0546314B1B6813F0020FAB
:10312000D1D0FEF733FC401B0228F5D9032014E16F
:103130000120FFF701FF236813F0040F00F09680D1
:10314000274BDB6913F0805F34D1254BDA6942F0FD
:103150008052DA61DB6903F080530193019B012502
:10316000214B1B6813F4807F26D0E368012B3DD0F0
:10317000002B53D103F1804303F504331A6A22F084
:1031800001021A621A6A22F004021A6233E0154B35
:103190000022C3F88024FEF7F9FB0546104B5B6A5A
:1031A00013F0020FC7D0FEF7F1FB401B0228F5D940
:1031B0000320D2E00025D3E70B4A136843F4807361
:1031C0001360FEF7E3FB0646074B1B6813F4807F92
:1031D000CBD1FEF7DBFB801B6428F5D90320BCE0D4
:1031E0000010024000004242007000405F4A136A33
:1031F00043F001031362E36833B3FEF7C7FB0646EF
:103200005A4B1B6A13F0020F2FD1FEF7BFFB801B36
:1032100041F288339842F3D903209EE0052B09D070
:10322000524B1A6A22F001021A621A6A22F0040250
:103230001A62E0E74D4B1A6A42F004021A621A6AF7
:1032400042F001021A62D6E7FEF7A0FB0646474BA2
:103250001B6A13F0020F08D0FEF798FB801B41F2A7
:1032600088339842F3D9032077E0E5B9E369002B6E
:1032700072D03E4A526802F00C02082A56D0022B45
:1032800017D03B4B00221A66FEF780FB0446374BF3
:103290001B6813F0007F47D0FEF778FB001B022865
:1032A000F5D9032059E0314AD36923F08053D36123
:1032B000DCE72F4B00221A66FEF768FB05462B4B16
:1032C0001B6813F0007F06D0FEF760FB401B02284E
:1032D000F5D9032041E0236AB3F5803F1AD0234992
:1032E0004B6823F47413226A606A024313434B60F1
:1032F0001F4B01221A66FEF749FB04461B4B1B6855
:1033000013F0007F0ED1FEF741FB001B0228F5D918
:10331000032022E0154A536823F40033A1680B43CD
:103320005360DCE7002018E0002016E0012B16D0E7
:103330000E4B5B6803F48031226A914211D103F491
:103340007013626A93420ED1002006E0012070479C
:10335000012002E0012000E0002002B070BD012049
:10336000FBE70120F9E70120F7E700BF001002406A
:10337000000042420F4B5B6803F00C02082A01D0A8
:103380000D487047C3F383420C49885C13F4803FB7
:103390000BD0084B5B68C3F34043094AD35C064A31
:1033A00002FB00F0B0FBF3F07047064B03FB00F0AC
:1033B000704700BF0010024000127A0038AD0008CC
:1033C00034AD000800093D00002800F0A08070B571
:1033D0000D460446524B1B6803F007038B420BD289
:1033E0004F4A136823F007030B431360136803F07D
:1033F00007038B4240F08D80236813F0020F17D033
:1034000013F0040F04D0474A536843F4E063536059
:10341000236813F0080F04D0424A536843F4605302
:103420005360404A536823F0F003A1680B43536094
:10343000236813F0010F31D06368012B20D0022BD9
:1034400025D0384A126812F0020F64D035494A6814
:1034500022F0030213434B60FEF798FA0646314B05
:103460005B6803F00C036268B3EB820F16D0FEF7C3
:103470008DFA801B41F288339842F0D9032045E051
:10348000284A126812F4003FE0D101203EE0254AAC
:10349000126812F0007FD9D1012037E0204B1B6861
:1034A00003F00703AB420AD91D4A136823F0070350
:1034B0002B431360136803F00703AB422DD123683D
:1034C00013F0040F06D0174A536823F4E063E16851
:1034D0000B435360236813F0080F07D0114A536859
:1034E00023F46053216943EAC1035360FFF742FFAD
:1034F0000C4B5B68C3F303130B4AD35CD8400B4BF4
:1035000018600B4B1868FEF7FDF9002070BD012014
:1035100070470120FAE70120F8E70120F6E700BF35
:10352000002002400010024024AD000800000020EE
:1035300008000020014B1868704700BF0000002001
:1035400008B5FFF7F7FF044B5B68C3F30223034A98
:10355000D35CD84008BD00BF001002401CAD00087D
:1035600008B5FFF7E7FF044B5B68C3F3C223034AC8
:10357000D35CD84008BD00BF001002401CAD00085D
:1035800070B582B00446036813F0010F36D03F4B8C
:10359000DB6913F0805F49D13C4BDA6942F080521D
:1035A000DA61DB6903F080530193019B0125384BFD
:1035B0001B6813F4807F3BD0344B1B6A13F44073B9
:1035C00013D0626802F440729A420ED02F4A136AF6
:1035D00023F440702F490126C1F840640026C1F849
:1035E0004064106213F0010F36D1284A136A23F4A5
:1035F000407361680B431362002D3ED1236813F0C2
:10360000020F06D0214A536823F44043A1680B43BC
:103610005360236813F0100F34D01C4A536823F40E
:103620008003E1680B43536000202CE00025BEE7D7
:10363000174A136843F480731360FEF7A7F9064630
:10364000134B1B6813F4807FB6D1FEF79FF9801BE4
:103650006428F5D9032016E0FEF798F906460B4BCF
:103660001B6A13F0020FC0D1FEF790F9801B41F2E4
:1036700088339842F3D9032005E0D36923F08053BF
:10368000D361BBE7002002B070BD00BF0010024054
:10369000007000400000424208B502284ED01028B9
:1036A00003D0012828D0002008BD2B4B5A68186889
:1036B00010F08070F8D0C2F383432849C85C12F43C
:1036C000803F15D0244B5B68C3F34043244AD25C4F
:1036D000244BB3FBF2F303FB00F01F4B5B6813F4C6
:1036E000800FE1D14000204BA3FB00304008DBE716
:1036F0001E4B03FB00F0F0E7174B1B6A40F202324F
:103700001A40B2F5817F24D003F44073B3F5007FF3
:1037100004D0B3F5407F09D00020C5E70E4A526AB5
:1037200012F0020FF5D049F64040BDE70A4B186889
:1037300010F40030B8D04FF22440B5E7FFF710FF87
:10374000054B5B68C3F3813301335B00B0FBF3F0DF
:10375000AAE74FF40040A7E7001002404CAD000874
:1037600048AD000800127A00ABAAAAAA00093D00E1
:1037700030B4026A036A23F0010303624568836977
:1037800023F073030C681C4322F002028B6813437E
:103790000B4A904206D0456084614A6842630362E6
:1037A00030BC704723F00803CA681A4322F00403B0
:1037B00025F440754A692A438D691543EBE700BF3C
:1037C000002C014030B4036A026A22F48072026263
:1037D0004468C26922F073020D68154323F4007334
:1037E0008A6843EA02230D4A904206D04460C561CC
:1037F0004A68C263036230BC704723F40063CA683E
:1038000043EA022323F4806324F440544A6944EADF
:1038100002148A6944EA0214E8E700BF002C014060
:1038200030B4036A026A22F4805202624468C269B8
:1038300022F4E6420D6842EA052223F400538D6823
:1038400043EA0533074DA84206D04460C2614A6886
:103850000264036230BC704724F480444D6944EA3A
:103860008514F2E7002C014010B4036A046A24F0C6
:1038700001040462846924F0F00C4CEA021223F083
:103880000A030B438261036210BC704710B4036AE1
:10389000046A24F010040462846924F4704C4CEA35
:1038A000023223F0A00343EA01138261036210BCD9
:1038B0007047836823F070030B4343F00703836072
:1038C000704770477047704770477047704770B5D2
:1038D00004460368DE681D6915F0020F10D016F06B
:1038E000020F0DD06FF002021A6101230377036803
:1038F0009B6913F0030F5ED0FFF7E6FF00232377E9
:1039000015F0040F12D016F0040F0FD023686FF0DB
:1039100004021A610223237723689B6913F4407F12
:103920004FD02046FFF7D0FF0023237715F0080F74
:1039300012D016F0080F0FD023686FF008021A613A
:10394000042323772368DB6913F0030F40D020465C
:10395000FFF7BAFF0023237715F0100F12D016F0EF
:10396000100F0FD023686FF010021A61082323771D
:103970002368DB6913F4407F31D02046FFF7A4FFB2
:103980000023237715F0010F02D016F0010F2DD17F
:1039900015F0800F02D016F0800F2FD115F0400FD8
:1039A00002D016F0400F31D115F0200F02D016F0E2
:1039B000200F33D170BDFFF786FF2046FFF785FF4C
:1039C0009CE72046FFF77FFF2046FFF77EFFABE72F
:1039D0002046FFF778FF2046FFF777FFBAE720463B
:1039E000FFF771FF2046FFF770FFC9E723686FF00C
:1039F00001021A612046FFF765FFC9E723686FF0EF
:103A000080021A61204600F086FAC7E723686FF04B
:103A100040021A612046FFF759FFC5E723686FF09F
:103A200020021A61204600F075FAC3E703681F4AB6
:103A300090420AD0B0F1804F07D0A2F59432904264
:103A400003D002F58062904203D123F070034A68EC
:103A50001343164A90420AD0B0F1804F07D0A2F526
:103A60009432904203D002F58062904203D123F455
:103A70004073CA68134323F080034A691343036009
:103A80008B68C3620B688362084B98420AD001239B
:103A90004361036913F0010F03D0036923F00103AD
:103AA000036170470B690363F1E700BF002C01401D
:103AB00040B310B5044690F83D30F3B1022384F8CA
:103AC0003D30214651F8040BFFF7B0FF012384F885
:103AD000463084F83E3084F83F3084F8403084F833
:103AE000413084F8423084F8433084F8443084F81C
:103AF000453084F83D30002010BD80F83C30FDF7A3
:103B0000A9FDDBE70120704740B310B5044690F8EB
:103B10003D30F3B1022384F83D30214651F8040BC7
:103B2000FFF784FF012384F8463084F83E3084F8A0
:103B30003F3084F8403084F8413084F8423084F8D3
:103B4000433084F8443084F8453084F83D30002018
:103B500010BD80F83C30FFF7B4FEDBE70120704772
:103B600030B4036A026A22F0100202624468826979
:103B700022F4E6420D6842EA052223F020038D6814
:103B800043EA05130C4DA84206D0446082614A689E
:103B90008263036230BC704723F08003CD6843EA40
:103BA000051323F0400324F440644D6944EA85047E
:103BB0008D6944EA8504E8E7002C014038B590F8A7
:103BC0003C30012B66D004460D46012380F83C3082
:103BD0000C2A5AD8DFE802F0075959591B5959598C
:103BE0003059595944000068FFF7C2FD22689369B3
:103BF00043F0080393612268936923F004039361FF
:103C00002268936929690B43936100203EE00068B4
:103C1000FFF7A6FF2268936943F40063936122686B
:103C2000936923F48063936122689369296943EA65
:103C300001239361002029E00068FFF7C3FD22689B
:103C4000D36943F00803D3612268D36923F00403E6
:103C5000D3612268D36929690B43D361002015E041
:103C60000068FFF7DDFD2268D36943F40063D36188
:103C70002268D36923F48063D3612268D3692969F8
:103C800043EA0123D361002000E00120002384F8EF
:103C90003C3038BD0220FCE710B4846824F47F4C2B
:103CA00042EA03220A4342EA0C02826010BC7047D7
:103CB00090F83C30012B78D010B50446012380F8F1
:103CC0003C30022380F83D300268936823F47F4340
:103CD00023F0770393600B68602B4CD029D8402BDE
:103CE00054D00CD9502B22D1CA6849680068FFF71C
:103CF000BBFD50212068FFF7DCFD002005E0202BF4
:103D00000DD009D9302B0AD00120012384F83D3091
:103D1000002384F83C3010BD0BB1102B05D119469F
:103D20002068FFF7C6FD0020EFE70120EDE7012046
:103D3000EBE7B3F5805F34D0B3F5005F0CD1CB680F
:103D40004A6889680068FFF7A7FF2268936843F410
:103D5000804393600020D8E7702B24D1CB684A6859
:103D600089680068FFF798FF2268936843F077033B
:103D700093600020C9E7CA6849680068FFF786FDBC
:103D800060212068FFF795FD0020BEE7CA684968FA
:103D90000068FFF769FD40212068FFF78AFD0020D9
:103DA000B3E70020B1E70120AFE70220704701F040
:103DB0001F014FF0010C0CFA01FC036A23EA0C030B
:103DC0000362036A8A4013430362704710B50446D6
:103DD000084651BB94F83E30DBB2013B18BF0123CB
:103DE000002B5BD1002839D1022384F83E30012218
:103DF00001462068FFF7DBFF23682A4A93423DD043
:103E00002368284A93423ED0B3F1804F3BD0A2F5BD
:103E10009432934237D002F58062934233D01A68CD
:103E200042F001021A60002039E0042908D0082974
:103E30000DD094F84130DBB2013B18BF0123CFE72E
:103E400094F83F30DBB2013B18BF0123C8E794F878
:103E50004030DBB2013B18BF0123C1E7042805D085
:103E6000082807D0022384F84130C0E7022384F8F1
:103E70003F30BCE7022384F84030B8E75A6C42F484
:103E800000425A64BCE79A6802F00702062A07D08B
:103E90001A6842F001021A60002000E0012010BD03
:103EA0000020FCE7002C014090F83C20012A2CD097
:103EB00010B40346012280F83C20022280F83D2005
:103EC00002685068946820F0700C086840EA0C00A2
:103ED00050601A680E4882420AD0B2F1804F07D073
:103EE000A0F59430824203D000F58060824204D174
:103EF00024F08004496821439160012283F83D2029
:103F0000002083F83C0010BC70470220704700BFBF
:103F1000002C014070477047026802F10C0353E81F
:103F2000003F23F0C0030C3242E800310029F3D1F6
:103F3000202380F841307047026802F10C0353E8F7
:103F4000003F23F490730C3242E800310029F3D192
:103F5000026802F1140353E8003F23F00103143216
:103F600042E800310029F3D1036B012B05D0202357
:103F700080F84230002303637047026802F10C03AB
:103F800053E8003F23F010030C3242E800310029CF
:103F9000F3D1ECE790F84130DBB2212B01D00220C5
:103FA00070478368B3F5805F17D0036A5A1C0262BA
:103FB0001A7803685A60C38C9BB2013B9BB2C384DE
:103FC0004BB90268D36823F08003D3600268D368DA
:103FD00043F04003D360002070470369002BE4D115
:103FE000036A1B880268C3F308035360036A023341
:103FF0000362E0E710B504460268136923F44053F6
:10400000C1680B43136183680269134342691A4311
:104010000168CB6823F4B05323F00C031343CB6047
:104020000268536923F4407381690B43536102684A
:10403000134B9A4220D0FFF783FA024602EB82022A
:1040400002EB820263689B00B2FBF3F20D48A0FB17
:1040500002314909642303FB11231B013233A0FB06
:1040600003035B0903F0F00202EB011203F00F03FC
:10407000216813448B6010BDFFF772FA0246DDE73A
:10408000003801401F85EB5160B310B5044690F82D
:10409000413013B3242384F841302268D36823F4D9
:1040A0000053D3602046FFF7A5FF2268136923F46D
:1040B000904313612268536923F02A0353612268F5
:1040C000D36843F40053D36000206064202384F855
:1040D000413084F84230606310BD80F84030FDF715
:1040E00073FBD7E70120704738B5134690F841209D
:1040F000D2B2202A2FD1044600292ED00BB901209C
:1041000038BD01628384C38400224264212084F884
:104110004100A06B124D8562A06B124DC562A06B71
:10412000114D0563A06B426322680432A06BFEF759
:10413000A3FC23686FF040021A60226802F11403A6
:1041400053E8003F43F08003143242E80031002975
:10415000F3D10020D4E70220D2E70120D0E700BF4E
:104160006F410008D7410008E5410008704708B5D5
:104170000346406A1B681B6813F0200F1AD1002306
:10418000C384026802F1140353E8003F23F0800364
:10419000143242E800310029F3D1026802F10C0325
:1041A00053E8003F43F040030C3242E8003100295D
:1041B000F3D108BDFFF7DAFFFBE708B50168CA686D
:1041C00022F04002CA60202280F84120FFF7CEFF93
:1041D000002008BD704708B5406AFFF7FBFF08BD27
:1041E0007047704710B5446A23685A6994F84130A3
:1041F000DBB2212B10D023685A6902F0400294F8F8
:104200004230DBB2222B11D0636C43F010036364A5
:104210002046FFF7E6FF10BD02F08002002AEAD038
:104220000023E3842046FFF777FEE4E7002AEBD083
:104230000023E3852046FFF77FFEE5E708B5406AE7
:104240000023C385C384FFF7CCFF08BD704790F8F7
:104250004230DBB2222B69D18368B3F5805F4FD047
:10426000826AB3F5805F04D0002B56D10369002B1E
:1042700053D103685B681370836A01338362C38D13
:104280009BB2013B9BB2C385002B51D100B583B0DB
:104290000268D36823F02003D3600268D36823F454
:1042A0008073D3600268536923F0010353612023B4
:1042B00080F8423000234363036B012B33D100238A
:1042C0000363026802F10C0353E8003F23F010037C
:1042D0000C3242E800310029F3D103681A6812F069
:1042E000100F06D0002201921A6801925B680193B8
:1042F000019B818DFFF7AAFF002003B05DF804FB4E
:104300000269002AACD1826A03685B68C3F30803C0
:104310001380836A02338362B1E703685B6803F04A
:104320007F031370A8E7FFF75BFFE5E70220704704
:104330000020704710B582B0044602681368D06848
:10434000516913F00F0F09D113F0200F0CD010F0AA
:10435000200F09D02046FFF77AFF16E011F0010187
:1043600015D110F4907F12D1216B012979D013F06F
:10437000800F03D010F0800F40F0138113F0400F36
:1043800003D010F0400F40F0108102B010BD13F0C8
:10439000010F06D010F4807F03D0626C42F001025E
:1043A000626413F0040F04D019B1626C42F002028F
:1043B000626413F0020F04D019B1626C42F004027F
:1043C000626413F0080F07D010F0200F00D119B16C
:1043D000626C42F008026264626C002AD5D013F06D
:1043E000200F02D010F0200F29D123685B6903F061
:1043F0004003626C12F0080F00D163B32046FFF750
:104400009BFD23685B6913F0400F20D0226802F106
:10441000140353E8003F23F04003143242E8003114
:104420000029F3D1E36B73B1624A5A63E06BFEF784
:1044300081FB0028A9D0E06B436B9847A5E7204695
:10444000FFF705FFD1E72046FFF7CBFE9DE72046AB
:10445000FFF7C7FE99E72046FFF7C3FE002363641A
:1044600093E713F0100F82D010F0100F3FF47FAFDE
:10447000002301931368019353680193019B5369CF
:1044800013F0400F51D0E26B13685B689BB2002BB6
:104490003FF47BAFA18D99427FF677AFE3859369B7
:1044A000202B37D0226802F10C0353E8003F23F49D
:1044B00080730C3242E800310029F3D1226802F106
:1044C000140353E8003F23F00103143242E80031A3
:1044D0000029F3D1226802F1140353E8003F23F0CE
:1044E0004003143242E800310029F3D1202384F83C
:1044F000423000232363226802F10C0353E8003F9B
:1045000023F010030C3242E800310029F3D1E06BB4
:10451000FEF7EDFA02236363A18DE38D9BB2C91A06
:1045200089B22046FFF792FE2FE7A18DE38D9BB263
:10453000C91A89B2E38D9BB2002B3FF426AF002944
:104540003FF423AF226802F10C0353E8003F23F449
:1045500090730C3242E800300028F3D1226802F157
:10456000140353E8003F23F00103143242E8003003
:104570000028F3D1202384F84230002323632268EB
:1045800002F10C0353E8003F23F010030C3242E821
:1045900000300028F3D1022363632046FFF756FE64
:1045A000F3E62046FFF7F6FCEFE62046FFF705FEB0
:1045B000EBE600BF3D42000810B50E4A0023136031
:1045C0000023137153719371D37104E00A4A0021DF
:1045D00042F823100133132BF8DD084C2046FDF779
:1045E0003FFD2046FDF718FC4FF0FF312046FDF758
:1045F000E7F910BDAC0800205C080020E0060020B0
:1046000010B50F490B780F4A42F823005A1C0E4B85
:1046100083FB0203DB1003EB8303A2EB83030B702A
:104620000024002005E0074B53F82410FBF732FF6D
:104630000134132CF7DD0549FCF7E8F810BD00BF85
:10464000580800205C080020676666660000A041EC
:1046500008B5FBF7D3FF0449FCF724F80349FBF73F
:1046600019FFFFF7CDFF08BD20C5A43C38D2163D89
:1046700010B52848FDF766FA00B2FFF7E9FF0446D7
:10468000254B18602549FCF7BFF9A8B1224B1B79CF
:10469000132B02D80133204A13711F4B1B79132BA4
:1046A00005D91D4B01229A710022DA7110BD1A4BF7
:1046B00000229A71DA71F9E719492046FCF79AF954
:1046C000A8B1154B5B79132B02D80133124A5371F1
:1046D000114B5B79132B05D90F4B00229A710122E4
:1046E000DA71E3E70C4B00229A71DA71DEE70D49CB
:1046F0002046FCF789F90028D8D00B492046FCF762
:104700006FF90028D2D0044B00221A715A719A71A5
:10471000DA71CBE7E0060020AC0800200000584228
:1047200000001E42000026420000564210B5044C14
:104730000C212046FFF74AFB236800221A6410BDB3
:104740003C070020044B1B68DA6A52081A641A6896
:1047500042F001021A6070473C0700200A4B1B68B8
:10476000196A41F21112114208D1196A40F2444209
:10477000114203D11A6822F001021A60024B1B6831
:1047800000221A64704700BF3C07002008B5224B86
:104790009B79D3B1214B00221A70214B1B784F2BF0
:1047A00005D9632B0AD91E4B00221A7008BDFFF7EA
:1047B000C9FF1B4A137801331370F7E7FFF7CEFFE9
:1047C000174A137801331370F0E7134BDB79D3B139
:1047D000134B00221A70114B1B78132B05D9632B36
:1047E0000AD90E4B00221A70E0E7FFF7ABFF0B4A25
:1047F000137801331370D9E7FFF7B0FF074A137836
:1048000001331370D2E70023054A1370034A137073
:10481000FFF7A4FFCAE700BFAC080020B4080020DF
:10482000B508002010B58AB0002305930693012235
:1048300007920093019302930393089204930E232B
:104840000993074C69462046FDF731FD2046FDF7E8
:10485000B4FD02212046FDF708FF0AB010BD00BFDD
:104860001007002000B589B04FF4F77302930023BE
:10487000049305930423069300906B446A4602A9AF
:104880000248FDF7C8FD09B05DF804FB10070020E1
:1048900000B58BB001AB03AA0021FDF731FE0BB0D0
:1048A0005DF804FB0FB410B582B004AB53F8042BD1
:1048B0000193084C4FF40071204600F047F982B292
:1048C00021460548FFF710FC02B0BDE8104004B0D7
:1048D000704700BFB80800200C080020024A0349B6
:1048E000034800F0C9B800BF0C0000208171000827
:1048F000200000200C4B416810B59942044601D0BD
:1049000002F03EFCA168094B994202D0204602F019
:1049100037FCE168064B994204D02046BDE81040C0
:1049200002F02EBC10BD00BFB80A0020200B0020F2
:10493000880B00202DE9F84300250423304C314A30
:104940003149DFF8C890DFF8C880324F324E11602D
:1049500004F15C0029460822C4E90335C4E9005586
:10496000C4E90555A560656600F026F904F1580014
:10497000C4E90749C4E90987E66200F0EFF9274B6B
:104980002946082204F1C4006367C4E91A55C4E942
:104990001E552567C4F8CC50C4F8805000F00CF9BF
:1049A00004F1680304F1C000C4F88430C4E922981B
:1049B000C4E9247600F0D2F9194B294604F5967023
:1049C0000822C4F8DC30C4E93455C4E93855C4F8C9
:1049D000D850C4F83451C4F8E85000F0EDF804F1B0
:1049E000D003C4E93D87C4F8F09004F59470C4F88E
:1049F000FC60C4F8EC30BDE8F84300F0AFB900BF8C
:104A0000B80A0020F00B0020DD480008BD4A00086D
:104A1000E14A0008214B0008454B0008090001004D
:104A20001200020010B504460A4800F09BF9636BBF
:104A300023B9094B094A1B68626323B1BDE81040E2
:104A4000044800F091B9FFF775FFBDE81040014838
:104A500000F08AB9000C0020F00B0020F548000897
:104A6000014800F07FB900BF000C0020014800F0B1
:104A70007BB900BF000C00202DE9F8434FF000097E
:104A800080460F461646D6E90154013D10D4A3894D
:104A9000013D012B08D9B4F90E30013304D0214671
:104AA0004046B84749EA00096B1C04F16804EED19E
:104AB0003668002EE7D14846BDE8F88310B50C46AD
:104AC000B1F90E1000F0F0F8002803DB236D034469
:104AD000236510BDA38923F48053A38110BD00BFBB
:104AE0002DE9F0410C46B1F90C101F46CB050546E7
:104AF00016460BD421F48051A1813B46324628460C
:104B0000B4F90E10BDE8F04100F0E4B8B4F90E10AD
:104B10000223002200F0B2F8B4F90C10EAE700BF5B
:104B200010B50C46B1F90E1000F0A8F8B4F90C302D
:104B3000421C0EBF23F4805343F480532065A381AD
:104B400010BD00BFB1F90E1000F086B810B5194CB9
:104B5000002924689AB028DB009004904FF402707A
:104B60004FF6FF7CADF80C0011D001390291059190
:104B700020466946ADF80EC000F026FD421C01DA61
:104B80008B2323600022009B1A701AB010BD029183
:104B9000059120466946ADF80EC000F015FD431C96
:104BA00001DA8B2323601AB010BD8B234FF0FF3046
:104BB0002360F8E71800002070B5860747D0541E20
:104BC000002A3ED00346CAB201E0013C39D303F8C3
:104BD000012B9D07F9D1032C2CD9CDB205EB05256E
:104BE0000F2C1A4605EB054534D9A4F1100C2CF016
:104BF0000F0603F1100EB6444FEA1C1C15605560F9
:104C00009560D56010327245F8D10CF1010214F0B4
:104C10000C0F03EB021204F00F0C13D0ACF10403E1
:104C200023F003030433134442F8045B9A42FBD19C
:104C30000CF003042CB1C9B21C4403F8011B9C42C4
:104C4000FBD170BD64461346002CF4D1F9E703464E
:104C50001446C0E7A446E1E7002238B5064D0446F5
:104C600008462A60FCF7C4FC431C00D038BD2B6802
:104C7000002BFBD0236038BDF40B002038B50C4668
:104C8000114600228446074D20462A601A46644693
:104C9000FCF7B8FC431C00D038BD2B68002BFBD0C0
:104CA000236038BDF40B002038B50C4611460022B5
:104CB0008446074D20462A601A466446FCF77AFC73
:104CC000431C00D038BD2B68002BFBD0236038BDBF
:104CD000F40B002038B50C46114600228446074DDF
:104CE00020462A601A466446FCF774FC431C00D038
:104CF00038BD2B68002BFBD0236038BDF40B00209F
:104D0000014B1868704700BF1800002070B50F4BAA
:104D10000F4DAB42A3EB050607D00024B61055F8A3
:104D2000043B01349847A642F9D805F0DDFF094D50
:104D3000094B5E1BAB424FEAA60606D0002455F88D
:104D4000043B01349847A642F9D870BD4CB1000825
:104D50004CB100084CB1000854B10008704700BFC6
:104D6000704700BF704700BF704700BF024B13B1D0
:104D7000024800F005B870470000000061740008A8
:104D8000002301461A46184602F03EBC2DE9F843BE
:104D900006460820894602F077FB0546DFF8988032
:104DA000304600F005FCD8F808305F6827F00307AC
:104DB000A7F11104A4EB09042C44B4FBF5F4013C65
:104DC00005FB04F4A54208DC0021304602F036FB66
:104DD000D8F808303B44984205D0304600F0EEFB4E
:104DE0000020BDE8F8833046614202F027FB013025
:104DF0000FD0124AD8F808303F1B47F001075F6018
:104E0000136830461B1B136000F0D8FB0120BDE87F
:104E1000F8830021304602F011FBD8F80820831AED
:104E20000F2BDADD43F001035360054B03491B6888
:104E3000C01A0860D1E700BF50010020080C002014
:104E40004401002000297CD0F8B50C46064600F04D
:104E5000AFFB54F8043C774FA4F1080523F001019F
:104E60006818D7F808C04268844522F0030200F0B1
:104E70008380DB07426000EB020C33D454F8084C0B
:104E8000DCF804302D1B2144AC6807F1080C6445A4
:104E900003F0010364D0D5F80CE0C4F80CE0CEF8C0
:104EA0000840002B00F0818041F001036B6001603D
:104EB000B1F5007F22D20122CB0849098A407968E6
:104EC00001330A437A6057F8331007EBC302083AFC
:104ED000C5E9021247F83350CD603046BDE8F840CE
:104EE00000F06CBBDCF80430DB072BD541F001038C
:104EF000B1F5007F44F8043C0160DCD3B1F5206FCC
:104F00004FEA512353D28B0903F1390003F13802E0
:104F1000C300F818FB580838984203D163E09B6837
:104F2000984204D05A6822F003028A42F7D8D8681F
:104F3000C5E9023085603046DD60BDE8F84000F02C
:104F40003DBB7047114407F1080C836863453FD0AF
:104F5000C268DA60936041F001036B606950A7E7B3
:104F6000002B61D10A44D0E90213CB60996042F072
:104F700001036B60AA50B0E70A44D90707D454F87C
:104F8000083CED1A1A44D5E90213CB60996042F04F
:104F900001036B60284BBD601B6893429DD8274B73
:104FA00030461968FFF7F2FE97E71144CDE7142B5E
:104FB00008D9542B1FD80B0B03F16F0003F16E02BD
:104FC000C300A6E703F15C0003F15B02C300A0E7A6
:104FD00041F001033D617D61C5F808C0C5F80CC012
:104FE0006B60695079E70121921001FA02F2796849
:104FF0000A437A609CE7B3F5AA7F06D8CB0B03F18E
:10500000780003F17702C30083E740F254529342E1
:1050100006D88B0C03F17D0003F17C02C30078E716
:105020004FF47E737E2274E741F001036B600160F0
:1050300053E700BF5001002048010020380C002039
:105040002DE9F04F01F10B05162D064683B024D84B
:10505000102900F2AA8000F0ABFA102518234FF0B7
:10506000020CB74F3B445C68A3F10802944200F085
:10507000198130466368E268A16823F00303CA60BF
:10508000234491605A68083442F001025A6000F0EB
:1050900095FA204603B0BDE8F08F35F0070500F122
:1050A0008480A94200F2818000F082FAB5F5FC7F8D
:1050B000C0F06F816B0A7CD0042B00F21B81AB091E
:1050C00003F1390C03F1380E4FEACC009C4F384401
:1050D00044680838A04207D10DE0002AE16880F258
:1050E000DB80884207D00C46636823F003035A1B19
:1050F0000F2AF2DDF446DFF84C823C69444500F0AB
:10510000B980636823F0030EAEEB05030F2B00F3A9
:105110004581002BC7E9048880F22F81BEF5007F0E
:10512000786880F0C68001234FEADE014FEA5E1EF8
:10513000194403FA0EF357F83120184307EBC10363
:10514000083BA260E360786047F83140D4600121F9
:105150004FEAAC039940814232D8014206D12CF08B
:10516000030C490001420CF1040CFAD007EBCC0A05
:105170005046E146D0F80CE00DE0DEF8042074461D
:1051800022F00302531B0F2BDEF80CE000F3BF806C
:10519000002B80F2E3807045EFD109F1010919F08D
:1051A000030F00F10800E5D124E10C233360002453
:1051B0006FE74FF400704FF0400C4FF03F0E85E763
:1051C000BC68636823F00309A94503D3A9EB050371
:1051D0000F2B51DC5C4B08201B6803F1100802F018
:1051E00053F95A4A04EB09030093136883460133C9
:1051F000A84405D008F1FF388044434203EA080878
:105200004146304602F01AF9B0F1FF3F82464F4A5C
:1052100000F0E18004EB0903834200F2DA804C4B9A
:105220000BF1FF31186840448446186040F000815B
:105230001AEA010F40F0FC80D7F808A0C84448F0F3
:105240000102CAF804205446424B1968814238BF13
:105250001860414B1968814238BF186022F003087A
:10526000A845A8EB050301D30F2B05DC304600F061
:10527000A5F99CE778686AE7621943F0010345F0F5
:10528000010565603046BA600834536000F096F955
:10529000204603B0BDE8F08FA2683046D1602344B9
:1052A0008A60EFE6DC68A3427FF4E3AE0CF1020C07
:1052B00021E7BEF5206F4FEA5E22C0F08380142AFA
:1052C00000F2178102F15C03DB005B32F918FB5836
:1052D0000839994203D1F3E09B68994204D05A6897
:1052E00022F003027245F7D8D968C4E902318C6014
:1052F000DC602CE7142B71D9542B00F203812B0BAB
:1053000003F16F0C03F16E0E4FEACC00DEE661197B
:10531000304645F00105A668656043F00105C6F812
:105320000CE0CEF80860C7E90411C1F80880C1F8A4
:105330000C804D60A35000F041F90834A9E600BF8D
:105340005001002058010020380C002044010020AA
:10535000080C0020340C0020300C0020224453683C
:10536000304643F00103536054F8083FC3F80CE0A3
:10537000CEF8083000F022F98BE6A644DEF80430BF
:10538000304643F00103CEF8043000F017F908343A
:105390007FE64FEAD50C05F1080362E6621943F097
:1053A000010145F0010565603046C7E90422C2F8F5
:1053B0000880C2F80C80516044F80E3000F0FEF80E
:1053C000083466E64FEA9E1202F13903DB003832F8
:1053D0007CE7BC4224D0BC6862683FE703F15C0C08
:1053E00003F15B0E4FEACC0070E65AF808395345DA
:1053F00040F0D9801CF0030F0CF1FF3CF5D17B6825
:1054000023EA01037B60490099423FF6D9AE19B9FE
:10541000D6E6490009F104091942FAD0CC46A5E6BE
:10542000624B0BF1FF31186808EB000CC3F800C0A9
:105430001068013071D004EB0902AAEB0202624449
:105440001A601AF00702CDE9002341D0C2F1080228
:105450009244D04408EA01005A44121A02EA010BAD
:105460005946304601F0EAFF421C019B72D0A0EB86
:105470000A0000EB0B08186848F001025844BC42CF
:10548000C7F808A01860CAF804203FF4DCAEB9F1F0
:105490000F0F45D94FF0050C6168A9F10C0222F0FD
:1054A000070201F00101114361600F2A04EB0201C0
:1054B000C1F804C0C1F808C054D8DAF80420C2E624
:1054C0004FF0010E92100EFA02F2104378600CE7D2
:1054D0000AEB08020A40ABEB020202EA010B594652
:1054E000304601F0ABFF431C019BC0D1DDF800B09A
:1054F000C1E7542A18D84FEA1E3202F16F03DB00CD
:105500006E32E3E6B3F5AA7F18D8EB0B03F1780C03
:1055100003F1770E4FEACC00D8E5C2F800A090E77F
:105520000123CAF80430A1E6B2F5AA7F25D84FEAD4
:10553000DE3202F17803DB007732C7E640F25452E4
:10554000934225D8AB0C03F17D0C03F17C0E4FEA9E
:10555000CC00BBE5009A4FF0000B083A9044A8EB52
:105560000A0888E7304604F108010093FFF76AFC57
:10557000009BD7F808A018689FE740F254539A425E
:105580000DD84FEA9E4202F17D03DB007C329DE69E
:105590004FF47E704FF07F0C4FF07E0E96E54FF487
:1055A0007E737E2292E67B682DE700BF080C002008
:1055B0000148FFF7D7BB00BFF80B00200148FFF7F9
:1055C000D3BB00BFF80B00202DE9F04FDDB00C4637
:1055D00091460C910E93834601F02CFF0368184608
:1055E0001A9301F0ABFF0346082200212CA8189360
:1055F000FFF7E2FAA3891A0603D52369002B00F00E
:105600008F87002300249E46CDE93133002333AA3F
:105610009046CDE91434CDE91CEE3092CDF864E02B
:10562000CDF86CE0CDF85CE0CDF828E0CDF848E0AE
:10563000CDF820B0CDF81890069E089D6F4B2CAF8A
:10564000D3F8E44001F0F0FE3246034628A928468C
:105650000097A047002800F09F80C0F29580289B0B
:10566000252B01D00644E9E7069B0546F71A40F0D2
:10567000978000224FF0FF33914609937378741C92
:105680008DF897200B921F460134A7F120035A2B67
:1056900000F2B680DFE813F0F202B400B400EE02CC
:1056A000B400B400B400CE02B400B4006A004302F7
:1056B000B4003F020003B400FC025B005B005B002F
:1056C0005B005B005B005B005B005B00B400B40050
:1056D000B400B400B400B400B4003701B400C30196
:1056E0001A03370137013701B400B400B400B40025
:1056F000CA02B400B4004802B400B400B400E60129
:10570000B400B802B400B4000507B400B400B4009B
:10571000B400B400B400B400B4003701B400C30155
:105720001702370137013701790217027400B400FC
:105730009202B400830227079C027400B400E601C1
:1057400072000107B400B4002A07B40072000022FE
:10575000A7F1300314F8017B02EB820203EB420253
:10576000A7F13003092BF5D90B928EE70E9B53F866
:10577000042B002A0B920E93C0F2CA81237882E791
:10578000237849F020097EE7082200212CA8FFF7A2
:1057900013FA0120064451E7069B0546F71A12D07A
:1057A000069BC8E90037329B3B443293319B01335F
:1057B000072B319318DC08F108080A9B3B440A9335
:1057C000002D7FF456AF329BDDF820B0002B41F066
:1057D000F6810C9B9B8903F04003002B41F0B283C0
:1057E0000A985DB0BDE8F08F0C99089830AA03F0D4
:1057F0001BFB0028EDD10DF1CC08DEE75805002099
:105800000F94002FDFD04FF0010B002243AB8DF837
:105810000C71CDF81CB00693CDE910228DF89720BD
:105820000D920992139219F0020302D007990231E6
:10583000079119F08404329D05D10B9907980E1A2F
:10584000002E00F3A88082B10122C8F80420319A0A
:10585000013501320DF19701072A32953192C8F8CE
:10586000001000F3178408F108087BB10223C8F880
:105870000430319B0235013326AA072B3295319330
:10588000C8F8002000F3F98308F10808802C00F024
:10589000BB82099BA3EB0B06002E00F3FB8219F4DD
:1058A000807F40F02B82069B5D44C8F80030319B1E
:1058B000C8F804B00133072B3295319300F36183AC
:1058C00008F1080819F0040F05D00B9B079A9C1AE1
:1058D000002C00F3EE83DDE90A3207998A42ACBF5F
:1058E0009B185B180A93002D40F00C830023319322
:1058F0000D9B1BB10D990898FFF7A4FA0DF1CC0888
:105900000F9B069398E60E9B0F94073323F0070333
:10591000F3E802450E9325F0004321932094DDE93E
:1059200020AB4FF0FF3250465946B24BCDE91445FB
:10593000FBF78EFB002840F057854FF0FF325046B2
:105940005946AC4BFBF766FB002840F04D85002222
:10595000002320462946FBF753FB002841F04F80E7
:105960009DF8972000214FF0030BA34CA34B29F087
:1059700080090D91CDF81CB0472FC8BF1C46CDE95A
:105980001011069409911391002A3FF44CAF079B24
:105990000133079347E7102E319A41F37982DFF8FC
:1059A00060C241462846B846CDE91E344FF0100A81
:1059B0006746089D0C9CCDF858C004E0103E102EA0
:1059C00001F1080115DD01321030072AC1E9007A22
:1059D000CDE93120F2DD2146284630AA03F024FA31
:1059E000002840F0F686DDE93120103E102E33A964
:1059F000E9DC4746DDE91E34884605460132169942
:105A00003544072ACDE93125C8F80010C8F80460EC
:105A100000F3CE869DF8972008F1080813E70E9B47
:105A2000432F0F9403F1040503D019F0100F00F079
:105A30006185082200212EA8FFF7BEF80E9A43AC1C
:105A40002146126808982EAB03F0BCF9B0F1FF3F75
:105A5000834601F0728220EAE073079300220E95DC
:105A60000694D9E600230E9E8DF8973056F8043B35
:105A70000F940693002B00F06285532F00F0C3862D
:105A800019F01003109340F0BE86099B5C1C01F0D6
:105A9000A1801A461099069801F004FD0D90002887
:105AA00001F018830D9B069A7327A3EB020B109B42
:105AB0002BEAEB719DF897200E96099307911393AB
:105AC00011930D9360E719F0200F0F9400F00581FA
:105AD0000E9B073323F007031846596850F8083B1C
