:020000040800F2
:1000000000200020B90B00087D0B0008850B0008BC
:1000100000000000000000000000000000000000E0
:100020000000000000000000000000008D0B000830
:100030000000000000000000970B0008A10B000862
:10004000090C0008090C0008090C0008090C00083C
:10005000090C0008090C0008090C0008090C00082C
:1000600000000000090C0008090C0008090C000839
:10007000090C0008090C000800000000090C000829
:100080000000000000000000000000000000000070
:10009000090C000800000000090C0008090C000809
:1000A00000000000090C0008000000000000000033
:1000B000090C0008090C0008000000000000000006
:1000C000002243088B4274D303098B425FD3030A97
:1000D0008B4244D3030B8B4228D3030C8B420DD3AA
:1000E000FF22090212BA030C8B4202D31212090238
:1000F00065D0030B8B4219D300E0090AC30B8B4276
:1001000001D3CB03C01A5241830B8B4201D38B0323
:10011000C01A5241430B8B4201D34B03C01A5241C8
:10012000030B8B4201D30B03C01A5241C30A8B420B
:1001300001D3CB02C01A5241830A8B4201D38B02F6
:10014000C01A5241430A8B4201D34B02C01A52419A
:10015000030A8B4201D30B02C01A5241CDD2C3090C
:100160008B4201D3CB01C01A524183098B4201D388
:100170008B01C01A524143098B4201D34B01C01A73
:10018000524103098B4201D30B01C01A5241C308EB
:100190008B4201D3CB00C01A524183088B4201D35A
:1001A0008B00C01A524143088B4201D34B00C01A46
:1001B0005241411A00D20146524110467047FFE7B2
:1001C00001B5002000F006F802BDC0460029F7D0B6
:1001D00076E770477047C046844608006146FFE7EF
:1001E0001FB502F019FB002801D40021C8421FBD31
:1001F00010B502F09FFA4042013010BD10B502F078
:100200000BFB002801DB002010BD012010BDC04603
:1002100010B502F001FB002801DD002010BD012017
:1002200010BDC04610B502F0ADFA002801DC002078
:1002300010BD012010BDC04610B502F0A3FA002881
:1002400001DA002010BD012010BDC0461C21012391
:100250001B04984201D3000C10391B0A984201D3A9
:10026000000A08391B09984201D30009043902A287
:10027000105C40187047C0460403020201010101EE
:10028000000000000000000010B5064C2378002B91
:1002900007D1054B002B02D0044800E000BF01232A
:1002A000237010BD1000002000000000A82B0008E3
:1002B000044B10B5002B03D00349044800E000BFF5
:1002C00010BDC0460000000014000020A82B00084C
:1002D00080B582B000AF3B00180008231A0000214F
:1002E00002F0EAF82A4B2B4A1A60294B0022DA6303
:1002F000274BC02212065A60254B00229A60244BDD
:1003000006229A63224B01221A61214B0022DA60F5
:100310001F4B2022002199541D4B2122002199546A
:100320001B4B00229A621A4BC222FF325A62184BB0
:100330002C2200219954164B04225A61144B00229E
:100340001A63134B00229A61114B01225A63104B1E
:100350000022DA610E4B180000F0ECFC031E01D005
:1003600000F0F2FB3B000C4A1A603B008022520175
:100370005A603A00064B1100180000F04BFF031EB4
:1003800001D000F0E1FBC046BD4602B080BDC046D2
:100390002C000020002401400002002490B589B008
:1003A00000AF78600C243B19180014231A000021B8
:1003B00002F082F87B681B68144A934221D1144BE7
:1003C0005A6B134B802189000A435A63104BDA6A37
:1003D0000F4B02210A43DA620D4BDB6A0222134003
:1003E000BB60BB683B1902221A603B1903225A60AA
:1003F0003B1900229A603B19064A1900100001F0CF
:1004000069F9C046BD4609B090BDC0460024014010
:10041000001002400004005090B589B000AF0C24D9
:100420003B19180014231A00002102F045F82F4B45
:10043000DA6A2E4B01210A43DA622C4BDB6A012275
:100440001340BB60BB68294BDA6A284B02210A4380
:10045000DA62264BDB6A022213407B607B68244908
:10046000A023DB050022180001F0BFFA214B002277
:10047000C821180001F0B9FA3B1981221A603B1912
:1004800000225A603B1900229A603A19A023DB052A
:100490001100180001F01EF93B19154A1A603B19AA
:1004A00001225A603B1900229A603B190022DA604F
:1004B0003A19A023DB051100180001F00BF9210007
:1004C0007B18C8221A607B1801225A607B18002210
:1004D0009A607B180022DA607B18064A1900100027
:1004E00001F0F8F8C046BD4609B090BD00100240CA
:1004F000188000000004005090B587B000AF00F0F5
:1005000085FB00F01DF9FFF787FFFFF7E1FE0023F1
:10051000FB600023BB607E4B0021180000F088FFC9
:10052000A023DB0500221021180001F05EFA8023D1
:100530001902A023DB050022180001F056FA754BC2
:1005400000220821180001F050FA724B00224021CD
:10055000180001F04AFA6F4B00228021180001F0C8
:1005600044FA6B4B180000F059FD01235A42684BC6
:100570001100180000F0A6FD674B1B781A00072336
:100580001A401400624B180000F038FE0100634B63
:10059000A200D150604B1B780133DAB25E4B1A7067
:1005A0005D4B1B78072B02D95D4B01221A705C4B07
:1005B0001B78002B02D1584B1A7800E00822FB1D53
:1005C0001A7000237B611323FB1800221A700DE0C0
:1005D00013217B181A78514B9200D3587A69D3189B
:1005E0007B617B181A787B1801321A701323FA1872
:1005F000FB1D12781B789A42EAD3FB1D1B78190069
:100600007869FFF75DFD0300FB60F86802F08CFA83
:10061000031C4449181C01F07BFF031C4249181CB1
:1006200002F042F9031CBB6000F0E8F912217B18CC
:1006300000221A703D4B1B78012B19D13C4B1B78C3
:10064000002B03D07B1801221A7011E0394B1B6874
:10065000002B0DD000F040FB0200364B1B68D21A75
:10066000FA23DB009A4203D21223FB1801221A70EC
:100670001223FB181B78002B04D0BB68181C00F059
:10068000B3F819E080231902A023DB05002218002B
:1006900001F0ABF91F4B00220821180001F0A5F969
:1006A0001C4B00224021180001F09FF9194B002239
:1006B0008021180001F099F91C4B1B78002B07D101
:1006C000A023DB0501221021180001F08EF91AE0A9
:1006D0001949B868FFF792FD031E05D11749B8689C
:1006E000FFF7A0FD031E07D0A023DB050122102188
:1006F000180001F07AF906E0A023DB0500221021A2
:10070000180001F072F9322000F0F0FA29E7C04633
:100710002C00002000040050A800002088000020C9
:10072000A900002000F07F45000068420000002082
:10073000B0000020B40000200000284233336B4298
:1007400090B593B000AF14243B19180034231A005D
:10075000002101F0B1FE3B00180014231A00002113
:1007600001F0AAFE1E4B1B681E4A1A401C4B80213A
:1007700009010A431A6021007B1810221A607B18B5
:1007800001229A617B180022DA617B18A0221202F2
:100790001A627B1800225A627B18180001F042F995
:1007A000031E01D000F0D0F93B000F221A603B007D
:1007B00000225A603B0000229A603B000022DA606F
:1007C0003B0000221A613B000021180001F0A6FC4A
:1007D000031E01D000F0B8F9C046BD4613B090BD6D
:1007E00000700040FFE7FFFF80B582B000AF786087
:1007F00078497868FFF720FD031E3AD0764978687B
:10080000FFF7FCFC031E34D000F066FA0200734BC5
:100810001B68D31AFA2B0CD9714B1B785A425341DF
:10082000DBB21A006E4B1A7000F056FA02006B4BE6
:100830001A606B4B1B785A1E9341DBB21A0080235F
:100840001902A023DB05180001F0CFF8654B002248
:100850000821180001F0C9F8624B0022402118005D
:1008600001F0C3F85F4B00228021180001F0BDF8B1
:10087000ABE059497868FFF7DFFC031E20D05A49E6
:100880007868FFF7BBFC031E1AD080231902A0234F
:10089000DB050122180001F0A8F8524B00220821C4
:1008A000180001F0A2F84F4B00224021180001F07F
:1008B0009CF84C4B00228021180001F096F884E04F
:1008C00049497868FFF7B8FC031E20D0474978688B
:1008D000FFF794FC031E1AD080231902A023DB0526
:1008E0000122180001F081F83E4B01220821180076
:1008F00001F07BF83B4B00224021180001F075F815
:10090000384B00228021180001F06FF85DE0374974
:100910007868FFF791FC031E20D035497868FFF70F
:1009200077FC031E1AD080231902A023DB050122C5
:10093000180001F05AF82B4B01220821180001F091
:1009400054F8284B01224021180001F04EF8254BA5
:1009500001228021180001F048F836E000F0BCF9CF
:100960000200244B1B68D21AFA235B009A420CD96E
:10097000214B1B785A425341DBB21A001E4B1A70AE
:1009800000F0AAF902001B4B1A601B4B1B785A1E81
:100990009341DBB21A0080231902A023DB05180063
:1009A00001F023F80F4B00220821180001F01DF878
:1009B0000C4B00224021180001F017F8094B0022CF
:1009C0008021180001F011F8C046C046BD4602B0B3
:1009D00080BDC04600002842CDCC3842B80000207F
:1009E000BC000020000400509A99494266665A42B1
:1009F00033336B42C0000020C400002090B583B0A8
:100A000000AFFC1DA023DB058021180000F0D0FF03
:100A10000300237000F060F903003B60FB1D1B78AE
:100A2000002B26D11B4B1B78002B09D11A4B3A689F
:100A30001A60184B01221A70184B00221A7025E018
:100A4000154B1B683A68D31A154A93421ED9134BAB
:100A50001B78002B1AD1134B1B785A425341DBB23F
:100A60001A00104B1A700D4B01221A7000F01EF87C
:100A70000CE0084B1B78012B08D10B4B3A681A602D
:100A8000044B00221A70054B00221A70C046BD4666
:100A900003B090BDB0000020AC000020B1000020E9
:100AA000B80B000000000020B400002080B582B028
:100AB00000AF00237B603CE080231902A023DB050C
:100AC0000122180000F091FF1E4B0122082118009E
:100AD00000F08BFF1B4B01224021180000F085FF26
:100AE000184B01228021180000F07FFF962000F0B3
:100AF000FDF880231902A023DB050022180000F076
:100B000074FF104B00220821180000F06EFF0D4BFF
:100B100000224021180000F068FF0A4B00228021CB
:100B2000180000F062FF962000F0E0F87B680133C7
:100B30007B607B68022BBFDDC046C046BD4602B06D
:100B400080BDC0460004005080B500AF72B6C046FC
:100B5000C046FDE780B500AF074B5A6B064B01213D
:100B60000A435A63044B9A6B034B802149050A439D
:100B70009A63C046BD4680BD0010024080B500AFFC
:100B8000C046FDE780B500AFC046FDE780B500AFC9
:100B9000C046BD4680BD80B500AFC046BD4680BDE5
:100BA00080B500AF00F086F8C046BD4680BD80B578
:100BB00000AFC046BD4680BD0D488546FFF7F7FF34
:100BC0000C480D490D4A002302E0D458C4500433A8
:100BD000C4188C42F9D30A4A0A4C002301E013607E
:100BE0000432A242FBD301F06FFCFFF785FCFEE765
:100BF000002000200000002010000020602C0008D1
:100C000010000020CC000020FEE7000080B582B07C
:100C100000AFFB1D00221A700B4B1A680A4B4021D3
:100C20000A431A60032000F011F8031E03D0FB1DD5
:100C300001221A7001E0FFF78DFFFB1D1B781800E1
:100C4000BD4602B080BDC0460020024090B583B0D2
:100C500000AF7860144B1C68144B1B781900FA2302
:100C60009800FFF72DFA030019002000FFF728FA7B
:100C70000300180000F021FD031E01D001230FE046
:100C80007B68032B0BD8796801235B420022180094
:100C900000F0FEFC064B7A681A60002300E0012396
:100CA0001800BD4603B090BD040000200C000020D9
:100CB0000800002080B500AF054B1B781A00054BDB
:100CC0001B68D218034B1A60C046BD4680BDC046A3
:100CD0000C000020C800002080B500AF024B1B684C
:100CE0001800BD4680BDC046C800002080B584B055
:100CF00000AF7860FFF7F0FF0300BB607B68FB602C
:100D0000FB68013305D00A4B1B781A00FB689B185F
:100D1000FB60C046FFF7E0FF0200BB68D31AFA6829
:100D20009A42F7D8C046C046BD4604B080BDC04612
:100D30000C00002080B582B000AF78607B68002B8B
:100D400001D1012359E17B685B6D002B0AD17B68DF
:100D500000229A657B685022002199547B68180014
:100D6000FFF71CFB7B685B6D10221340102B05D036
:100D70007B681B689B68042213400BD07B685B6D0B
:100D800010221A437B685A657B68502200219954CF
:100D9000012332E17B685B6D9A4A134002221A43B9
:100DA0007B685A657B681B689B6803221340012B94
:100DB00008D17B681B681B6801221340012B01D1FD
:100DC000012300E00023002B49D17B685A68C0232F
:100DD0001B069A420BD07B685A688023DB059A4237
:100DE00005D07B685A6880231B069A4211D17B6824
:100DF0001B681A697B681B68920092081A617B68FD
:100E00001B6819697B685A687B681B680A431A610A
:100E100014E07B681B681A697B681B689200920863
:100E20001A61794B1A68784B78490A401A60764BF8
:100E300019687B685A68744B0A431A607B681B68A0
:100E4000DA687B681B6818218A43DA607B681B6854
:100E5000D9687B689A687B681B680A43DA606A4BCA
:100E60001A68694B6A490A401A60674B19687B68BF
:100E70005B6B5A06644B0A431A607B681B689A686E
:100E800080235B05134008D17B681B689A687B68E8
:100E90001B68802149050A439A607B681B68DA68F1
:100EA0007B681B685B490A40DA607B681B68D9680D
:100EB0007B68DA687B681B69022B01D1042300E0A0
:100EC00000231A437B6820201B5C5B031A437B686A
:100ED0002C201B5C5B001A437B681B6B1A437B68EE
:100EE0009B699B031A437B68DB69DB031A437B68BE
:100EF0001B680A43DA607B685A6AC223FF339A424E
:100F00000BD07B681B68D9687B685A6A7B689B6AD0
:100F10001A437B681B680A43DA607B6821229B5C6A
:100F2000012B1AD17B6820229B5C002B09D17B68A6
:100F30001B68DA687B681B68802149020A43DA6013
:100F40000BE07B685B6D20221A437B685A657B68E7
:100F50009B6D01221A437B689A657B68DB6B012BD2
:100F60001FD17B681B681A697B681B682A490A4085
:100F70001A617B681B6819697B681A6C7B685B6CFB
:100F80001A437B689B6C1A437B681B680A431A618F
:100F90007B681B681A697B681B6801210A431A6118
:100FA0000EE07B681B681B6901221340012B07D1EF
:100FB0007B681B681A697B681B6801218A431A6178
:100FC0007B681B685A697B681B6807218A435A61E2
:100FD0007B681B6859697B689A6B7B681B680A434E
:100FE0005A617B6800229A657B685B6D032293439C
:100FF00001221A437B685A6500231800BD4602B0DF
:1010000080BDC046FDFEFFFF08270140FFFFC3FF74
:10101000FFFFFFFD1902FEFF03FCFFFF90B585B047
:1010200000AF78600F23FB1800221A707B681B68E2
:101030009B680422134038D17B6850229B5C012BB3
:1010400001D1022338E07B685022012199547B684A
:10105000DB69012B07D00F23FC187B68180000F018
:101060005FF9030023700F23FB181B78002B20D19E
:101070007B685B6D124A1340802252001A437B68E2
:101080005A657B6800229A657B685022002199543A
:101090007B681B681C221A607B681B689A687B68E7
:1010A0001B6804210A439A6003E00F23FB18022205
:1010B0001A700F23FB181B781800BD4605B090BDB1
:1010C000FEF0FFFF80B584B000AF78603960002388
:1010D000BB600023FB607B685B69082B02D108239F
:1010E000FB6014E07B681B68DB6801221340012B66
:1010F0000BD17B685B6D20221A437B685A657B6845
:10110000502200219954012372E00C23FB60FFF769
:10111000E3FD0300BB601FE03B6801331CD03B686C
:10112000002B07D0FFF7D8FD0200BB68D31A3A683E
:101130009A4211D27B681B681B68FA6813400BD176
:101140007B685B6D04221A437B685A657B6850227A
:101150000021995403234BE07B681B681B68FA68E5
:101160001340D9D07B685B6D802292001A437B6864
:101170005A657B681B68DA68C0231B0113402ED1B7
:101180007B6820229B5C002B29D17B681B681B6835
:1011900008221340082B22D17B681B689B6804221D
:1011A000134010D17B681B685A687B681B680C2150
:1011B0008A435A607B685B6D0F4A134001221A43D1
:1011C0007B685A650BE07B685B6D20221A437B6865
:1011D0005A657B689B6D01221A437B689A657B6820
:1011E0009B69002B03D17B681B680C221A600023CB
:1011F0001800BD4604B080BDFEFEFFFF80B582B082
:1012000000AF78607B681B681B6C1800BD4602B09D
:1012100080BD000080B582B000AF786039607B6827
:1012200050229B5C012B01D102236CE07B68502291
:10123000012199547B681B689B68042213400BD0E2
:101240007B685B6D20221A437B685A657B6850225D
:1012500000219954012356E03B685B682C4A934275
:1012600028D07B681B68996A3B681B685B035A0B34
:101270007B681B680A439A623B681A688023DB021A
:10128000134009D0234B1A68224B802109040A43DA
:101290001A600A2000F0ACF83B681A6880239B02B1
:1012A00013402BD01B4B1A681A4B8021C9030A43E9
:1012B0001A6023E07B681B689A6A3B681B685B03C3
:1012C0005B0BD9437B681B680A409A623B681A68CB
:1012D0008023DB02134005D00E4B1A680D4B0E49DC
:1012E0000A401A603B681A6880239B02134005D0AD
:1012F000084B1A68074B09490A401A607B6850225C
:101300000021995400231800BD4602B080BDC0469C
:101310000110000008270140FFFF7FFFFFFFBFFF14
:1013200080B584B000AF78600023FB607B681B68E9
:101330009B6803221340012B08D17B681B681B6844
:1013400001221340012B01D1012300E00023002BD7
:1013500046D17B681B689B68244A13400DD07B688C
:101360005B6D10221A437B685A657B689B6D012276
:101370001A437B689A65012333E07B681B689A688F
:101380007B681B6801210A439A60012000F030F855
:10139000FFF7A2FC0300FB601BE0FFF79DFC0200CF
:1013A000FB68D31A0A2B14D97B681B681B680122BF
:1013B0001340012B0DD07B685B6D10221A437B68B4
:1013C0005A657B689B6D01221A437B689A650123ED
:1013D00007E07B681B681B6801221340012BDCD1EE
:1013E00000231800BD4604B080BDC0461700008031
:1013F00080B584B000AF78600B4B1B680B491800B8
:10140000FEF75EFE03001A007B685343FB6002E0B8
:10141000FB68013BFB60FB68002BF9D1C046C0466E
:10142000BD4604B080BDC0460400002040420F000D
:1014300080B586B000AF786039601723FB180022B2
:101440001A7000233B610023FB607B6850229B5C89
:10145000012B01D1022383E07B68502201219954A2
:101460007B681B689B6803221340012B08D17B68B3
:101470001B681B6801221340012B01D1012300E0EE
:101480000023002B5BD17B685B6D374A134002223F
:101490001A437B685A657B681B68DB68032213402C
:1014A000FB607B681B68DA687B681B6803218A43E2
:1014B000DA607B681B689A687B681B688021090674
:1014C0000A439A60FFF708FC03003B611DE0FFF749
:1014D00003FC02003B69D31A0A2B16D97B681B68F0
:1014E0009B68DB0FDA0780231B069A420DD17B68CD
:1014F0005B6D1222934310221A437B685A657B6806
:1015000050220021995401232AE07B681B689B68C4
:10151000DB0FDA0780231B069A42D8D07B681B6852
:10152000D9687B681B68FA680A43DA607B685B6D80
:101530000322934301221A437B685A6509E07B68C2
:101540005B6D20221A437B685A651723FB18012222
:101550001A707B685022002199541723FB181B78BE
:101560001800BD4606B080BDFDFEFFFF90B583B0FC
:1015700000AF02003960FB1D1A70FB1D1B787F2B2A
:1015800028D82F4AFB1D1B785BB29B08C0339B00F9
:101590009B58FA1D1278110003220A40D200FF2145
:1015A00091400A00D2431A4011003B689B01FF2280
:1015B0001A40FB1D1B78180003230340DB009A40F0
:1015C0001F48FB1D1B785BB29B080A43C0339B007E
:1015D0001A5031E01B4AFB1D1B7819000F230B40EA
:1015E000083B9B0806339B00D31804331B68FA1D85
:1015F0001278110003220A40D200FF2191400A0014
:10160000D2431A4011003B689B01FF221A40FB1D88
:101610001B78180003230340DB009A400948FB1D98
:101620001B781C000F232340083B9B080A4306330A
:101630009B00C31804331A60C046BD4603B090BD7A
:1016400000E100E000ED00E080B582B000AF78601E
:101650007B685A1E80235B049A4201D3012310E069
:101660000A4B7A68013A5A6001235B420321180051
:10167000FFF77CFF054B00229A60044B07221A609B
:1016800000231800BD4602B080BDC04610E000E057
:1016900080B584B000AFB9607A600F217B18021C5E
:1016A0001A70BA687B181B785BB211001800FFF73C
:1016B0005DFFC046BD4604B080BD80B582B000AFBE
:1016C00078607B681800FFF7BFFF03001800BD4675
:1016D00002B080BD80B586B000AF7860396000236D
:1016E0007B610023FB6000233B6149E13B681B6891
:1016F00001217A6991400A001340FB60FB68002BCE
:1017000000D13AE13B685B6803221340012B05D00E
:101710003B685B6803221340022B30D17B689B68D7
:101720003B617B695B0003229A401300DA433B690B
:1017300013403B613B68DA687B695B009A401300A9
:101740003A6913433B617B683A699A607B685B68DE
:101750003B6101227B699A401300DA433B691340E5
:101760003B613B685B681B0901221A407B699A4018
:1017700013003A6913433B617B683A695A603B68DE
:101780005B6803221340032B17D07B68DB683B6147
:101790007B695B0003229A401300DA433B691340E4
:1017A0003B613B689A687B695B009A4013003A6929
:1017B00013433B617B683A69DA603B685B680322EC
:1017C0001340022B23D17B69DA087B680832920030
:1017D000D3583B617B69072213409B000F229A403C
:1017E0001300DA433B6913403B613B681A697B692C
:1017F00007210B409B009A4013003A6913433B6159
:101800007B69DA087B68083292003969D1507B68BD
:101810001B683B617B695B0003229A401300DA433B
:101820003B6913403B613B685B6803221A407B695C
:101830005B009A4013003A6913433B617B683A6945
:101840001A603B685A68C0239B02134000D194E0A1
:10185000514B5A6B504B01210A435A634F4A7B69E3
:101860009B0802339B009B583B617B69032213401A
:101870009B000F229A401300DA433B6913403B61FF
:101880007A68A023DB059A4213D07B68444A9342CE
:101890000DD07B68434A934207D07B68424A93420B
:1018A00001D1052306E0062304E0022302E0012320
:1018B00000E000237A6903210A40920093403A69CC
:1018C00013433B6135497B699B0802339B003A69AE
:1018D0005A50364B9B683B61FB68DA433B691340C7
:1018E0003B613B685A6880235B03134003D03A692D
:1018F000FB6813433B612D4B3A699A602B4BDB68C5
:101900003B61FB68DA433B6913403B613B685A68C3
:1019100080239B03134003D03A69FB6813433B6168
:10192000224B3A69DA60214B5B683B61FB68DA4322
:101930003B6913403B613B685A6880239B0213401C
:1019400003D03A69FB6813433B61184B3A695A600C
:10195000164B1B683B61FB68DA433B6913403B61F4
:101960003B685A6880235B02134003D03A69FB68E6
:1019700013433B610D4B3A691A607B6901337B610C
:101980003B681A687B69DA40131E00D0AEE6C04699
:10199000C046BD4606B080BD0010024000000140B8
:1019A0000004005000080050001C005000040140DA
:1019B00080B584B000AF78600A00BB1C1A807B68D9
:1019C0001B69BA1C1288134004D00F23FB18012294
:1019D0001A7003E00F23FB1800221A700F23FB1864
:1019E0001B781800BD4604B080BD80B582B000AF42
:1019F000786008001100BB1C021C1A807B1C0A1CAA
:101A00001A707B1C1B78002B04D0BB1C1A887B68C7
:101A10009A6103E0BB1C1A887B689A62C046BD4687
:101A200002B080BDB0B58AB000AF78607B68002B93
:101A300002D1012300F06CFBC84BDB680C22134081
:101A4000FB61C64BDA6880235B021340BB617B6895
:101A50001B680122134000D17DE0FB69082B07D0F1
:101A6000FB690C2B12D1BA6980235B029A420DD11B
:101A7000BA4B1A6880239B02134000D16AE07B684E
:101A80005B68002B66D1012300F042FB7B685A683B
:101A900080235B029A4207D1B04B1A68AF4B80217A
:101AA00049020A431A6027E07B685A68A023DB02D8
:101AB0009A420ED1A94B1A68A84B8021C9020A4349
:101AC0001A60A64B1A68A54B802149020A431A6086
:101AD00012E0A24B1A68A14BA1490A401A609F4B21
:101AE0001A6880235B021340FB60FB689B4B1A68FB
:101AF0009A4B9C490A401A607B685B68002B14D0A3
:101B0000FFF7EAF803007B6108E0FFF7E5F8020061
:101B10007B69D31A642B01D90323F9E28F4B1A682E
:101B200080239B021340F0D015E0FFF7D5F80300A7
:101B30007B6108E0FFF7D0F802007B69D31A642BC1
:101B400001D90323E4E2854B1A6880239B021340EA
:101B5000F0D100E0C0467B681B680222134000D130
:101B600099E07B68DB687B627B6A2022134009D0A6
:101B70007A4B1A68794B20210A431A607B6A20222B
:101B800093437B62FB69042B05D0FB690C2B3ED190
:101B9000BB69002B3BD1714B1B680422134004D05E
:101BA0007B6A002B01D10123B2E26C4B5B686E4A69
:101BB000134019007B681B691A02684B0A435A607C
:101BC000664B1B68092293431900644B7A6A0A43E7
:101BD0001A6000F0EBFB0100604BDB681B090F2271
:101BE0001340624AD35C0A00DA40614B1A60614BD1
:101BF0001B6813257C191800FFF728F803002370D1
:101C00007B191B78002B46D07B191B7880E27B6AFE
:101C1000002B27D0514B1B680922934319004F4BCF
:101C20007A6A0A431A60FFF757F803007B6108E0FD
:101C3000FFF752F802007B69D31A022B01D9032364
:101C400066E2464B1B6804221340F1D0434B5B68AD
:101C5000454A134019007B681B691A023F4B0A432F
:101C60005A6018E03D4B1A683C4B01218A431A60C8
:101C7000FFF732F803007B6108E0FFF72DF8020060
:101C80007B69D31A022B01D9032341E2334B1B6832
:101C900004221340F1D17B681B681022134000D14D
:101CA000A1E0FB69002B40D12C4B1A6880239B00DC
:101CB000134005D07B689B69002B01D1012327E2EB
:101CC000264B5B682C4A134019007B681A6A234B29
:101CD0000A435A60214B5B681B02190A7B68DB6967
:101CE0001A061E4B0A435A607B681B6A5B0B013362
:101CF000802212029A40194BDB681B090F210B400E
:101D00001A49CB5CDA401A4B1A601A4B1B68132530
:101D10007C191800FEF79AFF030023707B191B78CB
:101D2000002B60D07B191B78F2E17B689B69002B4C
:101D30003FD00A4B1A68094B802149000A431A60B8
:101D4000FEF7CAFF03007B6118E0FEF7C5FF020043
:101D50007B69D31A022B11D90323D9E10010024069
:101D6000FFFFFEFFFFFFFBFFFFE0FFFFC02B0008B0
:101D70000400002008000020FF1FFFFFC94B1A6865
:101D800080239B001340E0D0C64B5B68C64A1340DB
:101D900019007B681A6AC34B0A435A60C14B5B68DF
:101DA0001B02190A7B68DB691A06BE4B0A435A609C
:101DB00019E0BC4B1A68BB4BBC490A401A60FEF7DD
:101DC0008BFF03007B6108E0FEF786FF02007B6962
:101DD000D31A022B01D903239AE1B24B1A6880234C
:101DE0009B001340F0D17B681B680822134036D05B
:101DF0007B685B69002B19D0AA4B1A6DA94B012196
:101E00000A431A65FEF768FF03007B6108E0FEF7EE
:101E100063FF02007B69D31A022B01D9032377E108
:101E2000A04B1B6D02221340F1D018E09D4B1A6DA0
:101E30009C4B01218A431A65FEF74EFF03007B612C
:101E400008E0FEF749FF02007B69D31A022B01D993
:101E500003235DE1934B1B6D02221340F1D17B689C
:101E60001B680422134000D1AEE023203B1800225F
:101E70001A708C4B9A6B80235B05134009D1894BF8
:101E80009A6B884B802149050A439A633B180122CB
:101E90001A70874B1A6880235B0013401AD1844B59
:101EA0001A68834B802149000A431A60FEF714FF29
:101EB00003007B6108E0FEF70FFF02007B69D31A85
:101EC000642B01D9032323E1794B1A6880235B003B
:101ED0001340F0D07B689A6880235B009A4207D158
:101EE000704B1A6D6F4B802149000A431A6531E02F
:101EF0007B689B68002B0CD16A4B1A6D694B6B4950
:101F00000A401A65674B1A6D664B6A490A401A65A2
:101F100020E07B689A68A023DB009A420ED1614BD7
:101F20001A6D604B8021C9000A431A655D4B1A6D1A
:101F30005C4B802149000A431A650BE0594B1A6D2E
:101F4000584B5A490A401A65564B1A6D554B594918
:101F50000A401A657B689B68002B15D0FEF7BCFE13
:101F600003007B6109E0FEF7B7FE02007B69D31A2C
:101F7000514A934201D90323CAE04A4B1A6D802388
:101F80009B001340EFD014E0FEF7A6FE03007B6138
:101F900009E0FEF7A1FE02007B69D31A464A93428C
:101FA00001D90323B4E03F4B1A6D80239B001340FB
:101FB000EFD12323FB181B78012B05D1394B9A6BEA
:101FC000384B3E490A409A637B685B6A002B00D11C
:101FD0009DE0FB690C2B00D176E07B685B6A022BED
:101FE00045D1304B1A682F4B35490A401A60FEF72D
:101FF00073FE03007B6108E0FEF76EFE02007B6962
:10200000D31A022B01D9032382E0264B1A688023BE
:102010009B041340F0D1234BDB682A4A134019007C
:102020007B689A6A7B68DB6A1A437B681B6B1A437E
:102030001C4B0A43DA601B4B1A681A4B8021490477
:102040000A431A60FEF748FE03007B6108E0FEF7D2
:1020500043FE02007B69D31A022B01D9032357E008
:10206000104B1A6880239B041340F0D04FE00D4BB7
:102070001A680C4B12490A401A60FEF72DFE030045
:102080007B6108E0FEF728FE02007B69D31A022B71
:1020900001D903233CE0034B1A6880239B041340BF
:1020A000F0D134E000100240FF1FFFFFFFFEFFFFF2
:1020B00000700040FFFBFFFF88130000FFFFFFEFF1
:1020C000FFFFFFFEFFFF02FF7B685B6A012B01D170
:1020D00001231DE0104BDB68BB61BA6980235B0202
:1020E0001A407B689B6A9A420FD1BA69F0239B031E
:1020F0001A407B68DB6A9A4207D1BA69C0231B0485
:102100001A407B681B6B9A4201D0012300E0002338
:102110001800BD460AB0B0BD00100240B0B584B092
:1021200000AF786039607B68002B01D1012328E182
:10213000964B1B68012213403A689A421ED9934B72
:102140001B68012293431900904B3A680A431A60B6
:10215000FEF7C2FD0300FB6009E0FEF7BDFD0200D3
:10216000FB68D31A8A4A934201D9032309E1874BBA
:102170001B68012213403A689A42EED17B681B68C3
:102180000222134009D0834BDB68F02293431900ED
:102190007B689A687F4B0A43DA607B681B68012280
:1021A000134000D189E07B685B68022B07D1794B33
:1021B0001A6880239B02134020D10123E1E07B6851
:1021C0005B68032B07D1734B1A6880239B04134071
:1021D00014D10123D5E07B685B68012B06D16D4BE0
:1021E0001B680422134009D10123CAE0694B1A6815
:1021F00080239B00134001D10123C2E0654BDB68C3
:102200000322934319007B685A68624B0A43DA60E1
:10221000FEF762FD0300FB607B685B68022B11D157
:1022200009E0FEF759FD0200FB68D31A584A9342B1
:1022300001D90323A5E0574BDB680C221340082B80
:10224000EFD13AE07B685B68032B11D109E0FEF720
:1022500043FD0200FB68D31A4D4A934201D9032380
:102260008FE04C4BDB680C2213400C2BEFD124E0A9
:102270007B685B68012B1BD109E0FEF72DFD020096
:10228000FB68D31A424A934201D9032379E0414BB8
:10229000DB680C221340042BEFD10EE0FEF71CFD8F
:1022A0000200FB68D31A3A4A934201D9032368E03B
:1022B000384BDB680C221340F0D1344B1B680122F1
:1022C00013403A689A421ED2304B1B680122934356
:1022D00019002E4B3A680A431A60FEF7FDFC030012
:1022E000FB6009E0FEF7F8FC0200FB68D31A284AFD
:1022F000934201D9032344E0244B1B68012213407D
:102300003A689A42EED17B681B680422134009D0D8
:10231000204BDB68204A134019007B68DA681D4BAC
:102320000A43DA607B681B68082213400AD0194B05
:10233000DB681A4A134019007B681B69DA00154BE9
:102340000A43DA6000F032F80100124BDB681B0927
:102350000F221340124AD35C0A00DA40114B1A6074
:10236000114B1B680B257C191800FEF76FFC03004E
:1023700023707B191B78002B02D07B191B7800E09F
:1023800000231800BD4604B0B0BDC0460020024086
:102390008813000000100240FFF8FFFFFFC7FFFF97
:1023A000C02B0008040000200800002080B586B083
:1023B00000AF3C4BDB68FB60FB680C2213400C2B2E
:1023C00013D05CD8042B02D0082B0BD057E0354B30
:1023D0001B681022134002D0334B3B615DE0334B4E
:1023E0003B615AE0324B3B6157E0FB689B0C0F228C
:1023F0001340304AD35CBB60FB689B0D0322134043
:1024000001337B60274BDA6880235B0213400FD0D7
:10241000B9680A005201521A93019B1ADB005B183B
:102420005B0279681800FDF74BFE03007B6123E037
:102430001C4B1B68102213400FD0B9680A005201D0
:10244000521A93019B1ADB005B181B027968180073
:10245000FDF736FE03007B610EE0B9680A00520109
:10246000521A93019B1ADB005B189B0279681800D3
:10247000FDF726FE03007B617B693B610DE0094BA4
:102480005B685B0B072213403B603B680133802293
:1024900012029A4013003B61C0463B691800BD46DA
:1024A00006B080BD0010024000093D000024F40089
:1024B00000127A00D02B000803008218934200D14A
:1024C000704719700133F9E770B500260C4C0D4DBB
:1024D000641BA410A64209D1002600F065FB0A4C3B
:1024E0000A4D641BA410A64205D170BDB300EB5881
:1024F00098470136EEE7B300EB5898470136F2E70C
:10250000582C0008582C00085C2C0008582C000897
:10251000F0B546464F46D6464502C0B5C30F470004
:1025200098460E1C6D0A3F0E57D0FF2F21D08023F6
:10253000ED00DB041D43002399469A467F3F740259
:102540007300640A1B0EF60F002B20D0FF2B4CD01B
:1025500080220020E400D20414437F3B4246FF1A4D
:102560004B4672400F2B00D9ACE06F499B00CB5813
:102570009F46002D5BD108239946063B74029A467C
:102580007300FF27640A1B0EF60F002BDED1002C10
:1025900030D1012342464946724019430E2904D8DE
:1025A0006248890041588F464246FF200024C005FA
:1025B0002043D2071043E0BCBA46B146A846F0BD5E
:1025C0005346022BF0D0032B00D1A3E042462C004F
:1025D000012B35D100200024E9E7002D1BD1042375
:1025E0009946033B00279A46A9E7002C0CD1022309
:1025F000FF3FCFE72000FDF729FE431F9C407623D5
:102600005B421B1A0020A9E703234A461A4391465E
:102610000320FC33A2E72800FDF718FE7627431FAE
:102620009D4000237F4299469A463F1A87E70C2334
:102630009946093BFF279A4681E703286CD0320070
:1026400038007F30002825DD630704D00F232340A6
:10265000042B00D00434230103D53800344B8030E0
:102660001C40FE28A1DCA401640AC0B29FE78024BC
:102670000022FF20E4039AE78023DB031D4201D000
:102680001C424BD08024E4032C4364024246FF20CA
:10269000640A8CE701231B1A1B2B9BDC21009E374D
:1026A000D940BC400B00611E8C412343590704D024
:1026B0000F211940042900D00433590126D50120E7
:1026C000002474E76D016001854213D21B230024AE
:1026D000013F0126290064006D00002901DBA842AA
:1026E00001D82D1A3443013B002BF3D16B1E9D41C1
:1026F0002C43A5E71A2301242D1AEAE7981E43422A
:102700005841404232000024C0B250E79B010020F3
:102710005C0A4CE746462C008023DB031C43640222
:102720003200FF20640A42E7DC2B00081C2C000862
:10273000FFFFFFF770B542004E024C0045026D0AE4
:10274000120EC30F760A240EC90FFF2A10D0FF2CD9
:102750000CD00120A2420AD1B54208D18B420FD041
:10276000002A04D12800431E984100E0012070BDDA
:102770000120FF2CFBD13543F9D14B401800F6E77F
:102780000020F4E730B5420044024D02C30F480078
:10279000640A120E6D0A000EC90FFF2A17D0FF2817
:1027A0000AD0002A1BD100280AD1002D24D0002CE9
:1027B0002ED14800013830BD002D26D1002A01D18C
:1027C000002CF6D08B4206D158000138F3E7002CDC
:1027D0001BD1FF2813D001205B421843EBE70028F0
:1027E000F9D08B42F7D18242F5DCEDDBAC42F2D876
:1027F0000020AC42DFD2E7E7002CDCD0EBE7002D75
:1028000003D18B42E7D10020D5E702204042D2E736
:102810008B42EBD0DFE7C04630B5420044024D02A8
:10282000C30F4800640A120E6D0A000EC90FFF2A7A
:1028300018D0FF280DD0002A1CD100280DD1002D62
:1028400027D0002C0BD08B421BD001205B421843B9
:102850000FE0002D0CD1002A1ED1002C1CD1480005
:10286000013806E0002C03D1FF28EED1002D16D050
:10287000022030BD0028E8D08B42E6D18242E4DC61
:1028800004DBAC42E1D80020AC42F2D2580001385F
:10289000EFE7002CEDD0D8E78B42D6D1F6E7002049
:1028A0008B42E6D0D1E7C046F0B54F464646D64605
:1028B0004502C0B546000F1C6D0A360EC40F002E2F
:1028C00000D1C3E0FF2E77D08023ED00DB041D4351
:1028D000002399469A467F3E7B025B0A98467B001E
:1028E0001B0EFF0F002B77D0FF2B00D194E0424648
:1028F0008021D200C9041143884600217F3BF6188D
:102900004B46721C0A2B73DC4B467C40022B00DCCE
:10291000A7E0484601238340A620C000034267D1B8
:1029200090208000034200D0ECE0B938FF38184214
:1029300000D0DAE041460904090C43460F00280C98
:102940002D041B0C2D0C6F4341435D4358436D1800
:102950003B0C5B19994203D9802149028C466044A3
:102960003F0419043F0CC9198D016F1EBD411B0C9A
:10297000890E1B180D439B011D431B0100D4C6E0AB
:10298000012369081D400D4310007F30002800DC42
:1029900094E06B0704D00F232B40042B00D00435A8
:1029A0002B0103D5803210005E4B1D40FE2855DC04
:1029B000AB015B0AC0B226E0002D00D078E008230E
:1029C0009946063B9A467B025B0A98467B00FF26A7
:1029D0001B0EFF0F002B87D14346002B56D14A46D2
:1029E00001331A4391464B460121721C0A2B8BDDA1
:1029F0005346022B32D0032B00D17CE05346012BEF
:102A0000C2D100200023C0051843E4072043E0BCE6
:102A1000BA46B146A846F0BD33004246FF33002A0D
:102A20003FD0032249461143721C8946FF320A29CE
:102A300073DD0F295DD18023DB031D425BD042464D
:102A40001A4258D13C00FF201343DCE7002D11D17E
:102A500004239946033B00269A463DE7FF200023C6
:102A6000D1E7013B012B00D964E70229F6D04546A6
:102A70008A46C3E72800FDF7E9FB7626431F9D4001
:102A80000023764299469A46361A25E74046FDF7D6
:102A9000DDFB4246431F9A40361A90460021763E9F
:102AA0002EE749460232114389461E00022127E7DC
:102AB0000C239946093BFF269A460DE701231B1A72
:102AC0001B2B9EDC9E3229009540D9406A1E954101
:102AD0000D436B0704D00F232B40042B00D004358B
:102AE0006B0116D5012000238DE73C0045468A4640
:102AF0007EE73C0045468023DB032B435B02FF203F
:102B00005B0A80E780230024FF20DB037BE73200A1
:102B10003AE7AB0100205B0A75E71E0003217C4009
:102B2000F7E6C046FFFFFFF770B5041E0ED0FDF7B5
:102B30008DFB03009E20C01A96280CDC082B2DD09C
:102B4000083B9C406402640AC0B201E000200024FB
:102B5000C005204370BD992814DC5A1F9440220000
:102B600010490A40650709D00F252C40042C05D0D8
:102B70000432540102D59F200A40C01A9201540A1F
:102B8000C0B2E5E71A0021001B3291400A00511E35
:102B90008A410521C91ACC401443E0E7640296201B
:102BA000640AD5E7FFFFFFFBF8B5C046F8BC08BCD8
:102BB0009E467047F8B5C046F8BC08BC9E467047B4
:102BC00000000000000000000102030406070809DD
:102BD000030406080C10182030000000C42600086A
:102BE000AA250008D42500083A260008D4250008A4
:102BF0006E260008D42500083A260008AA250008F9
:102C0000AA2500086E2600083A260008C0250008FC
:102C1000C0250008C025000878260008AA2500085D
:102C2000AA250008D4250008FC260008D4250008A1
:102C30006E260008D4250008FC260008AA250008F6
:102C4000AA2500086E260008FC260008C0250008FA
:082C5000C0250008C0250008A2
:042C5800B1020008BD
:042C5C0089020008E1
:102C6000010000000000200004000000010000003E
:0400000508000BB92B
:00000001FF
