:020000040800F2
:10000000D806002065010008CD130008CD120008B5
:1000100000000000000000000000000000000000E0
:10002000000000000000000000000000D1130008E4
:100030000000000000000000CF130008D3130008E8
:1000400077010008770100087701000877010008B0
:1000500077010008770100087701000877010008A0
:100060000000000077010008770100087701000810
:100070007701000877010008000000007701000800
:100080000000000000000000000000000000000070
:1000900077010008000000007701000877010008E0
:1000A00000000000770100080000000000000000D0
:1000B0007701000877010008000000000000000040
:1000C00000F002F800F03EF80CA030C80838241800
:1000D0002D18A246671EAB4654465D46AC4201D180
:1000E00000F030F87E460F3E0FCCB6460126334274
:1000F00000D0FB1AA246AB46334318470017000056
:1001000020170000103A02D378C878C1FAD85207F5
:1001100001D330C830C101D504680C6070470000BD
:100120000023002400250026103A01D378C1FBD813
:10013000520700D330C100D50B6070471FB51FBDFB
:1001400010B510BD00F0D9F91146FFF7F7FF01F027
:1001500049FA00F0F1F903B4FFF7F2FF03BC00F035
:10016000F7F900000748804707480047FEE7FEE729
:10017000FEE7FEE7FEE7FEE704480549054A064BB1
:100180007047000049140008C1000008D800002092
:10019000D8060020D8020020D802002001E004C0C8
:1001A000091F0429FBD28B0701D50280801CC907D7
:1001B00000D00270704700290BD0C30702D0027034
:1001C000401C491E022904D3830702D50280801CEB
:1001D000891EE3E70022EEE70022DFE700220309A1
:1001E0008B422CD3030A8B4211D300239C464EE052
:1001F00003460B433CD4002243088B4231D303090E
:100200008B421CD3030A8B4201D394463FE0C309BF
:100210008B4201D3CB01C01A524183098B4201D3D7
:100220008B01C01A524143098B4201D34B01C01AC2
:10023000524103098B4201D30B01C01A5241C3083A
:100240008B4201D3CB00C01A524183088B4201D3A9
:100250008B00C01A524143088B4201D34B00C01A95
:100260005241411A00D201465241104670475DE0AA
:10027000CA0F00D04942031000D34042534000222D
:100280009C4603098B422DD3030A8B4212D3FC22D6
:10029000890112BA030A8B420CD3890192118B4255
:1002A00008D3890192118B4204D389013AD092116B
:1002B00000E08909C3098B4201D3CB01C01A524126
:1002C00083098B4201D38B01C01A524143098B42EF
:1002D00001D34B01C01A524103098B4201D30B01D8
:1002E000C01A5241C3088B4201D3CB00C01A5241FD
:1002F00083088B4201D38B00C01A5241D9D24308E4
:100300008B4201D34B00C01A5241411A00D2014620
:10031000634652415B10104601D34042002B00D58A
:100320004942704763465B1000D3404201B500204C
:10033000C046C04602BD704770477047F0B5FF2504
:100340002D04C609C209FF2704462E400137CB09F8
:100350003E4348402A402B400746002A6BD0002BE2
:1003600069D0AA4267D0AB4265D0002800DA324695
:100370000125ED0529432C4309022002090AD21A5E
:100380004B0C7F24E31A434C000A7C44E35C7D243D
:100390002404121914145B00A218884201D3521CC1
:1003A00000E0400049420C465C4324115C43DB0101
:1003B0006415E318040A5C43C502200D0C4644434F
:1003C0006419250A5D432303EC0C0D4665430003C5
:1003D0000019EB184C42A34201D35B18401CD40512
:1003E0002018002B07D05B00C91804D3401C00293B
:1003F00001D1400840003F2189048A4209D3002AE4
:1004000008DC1106090F04D0032149074018C00F6A
:10041000C007F0BD01224100120689187F22520652
:100420009142F6D205214907C84201D59010F0BD8E
:10043000FF20C005F0BD002F00DA32461648AA4260
:1004400007D2AB4205D21902090E17D0F80FC00728
:10045000F0BDFF2563002D06AB42F9D84900A94243
:10046000F6D8AB4201D1A942F2D0A94201D1002174
:1004700001E061004908D0050843F0BD1102090EF2
:10048000FBD0FF200243D005F0BD0A4601461046CE
:1004900054E700002B1400000000C07F1F22030C53
:1004A00002D10F2200041CD0030E01D10002083A31
:1004B000030F01D10001121F830F01D18000921E92
:1004C000002801DB4000521ED205511802125118BB
:1004D0001922904004D3491C002801D14908490041
:1004E00008467047C10FC90700D040420122920759
:1004F0001143D3E701218907D0E7754600F024F8BE
:10050000AE46050069465346C008C000854618B08F
:1005100020B5FFF731FE60BC00274908B64600262B
:10052000C0C5C0C5C0C5C0C5C0C5C0C5C0C5C0C5A3
:10053000403D49008D46704710B50446C046C04650
:100540002046FFF708FE10BD0048704778000020E5
:1005500001491820ABBEFEE72600020070470000EC
:1005600038B50446064805490068FFF737FE604382
:1005700000E0401E00900028FBD138BD40420F0033
:1005800018000020F8B50446006881688907890FC3
:10059000012902D10168C90727D18168144A1026B0
:1005A00011400125002913D1816829438160012070
:1005B000FFF7D6FF00F0FAFA074611E000F0F6FA6E
:1005C000C01B0A280CD920680068C043C00707D0A8
:1005D000606D30436065A06D2843A0650120F8BDC3
:1005E00020680068C043C007E8D10020F8BD0000C3
:1005F0001700008072B6FEE7F8B506460D46403695
:10060000317C01290DD00121317401688A685207BB
:1006100009D5416D2022114341650020307401202D
:10062000F8BD0220F8BD174B6A68D80547109A42FA
:10063000154C8A6A2B6812D05B035B0B1A438A62E3
:100640002968490305D5A1680143A1600A20FFF785
:1006500087FF2868800312D5A06838430EE05B034B
:100660005B0B9A438A622968490302D5A1688143DA
:10067000A1602868800302D5A068B843A06000206C
:100680003074F8BD01100000002701400068006CC4
:100690007047000070B5040006D0606D2646002546
:1006A0004036002802D006E0012070BDA5653574F3
:1006B000204600F0D3F8606DC00603D42168886836
:1006C000400705D5606D1021084360653574EBE780
:1006D000606DFF22013290430222104360658868FA
:1006E0008207920F5B48012A02D10A68D2072BD1F8
:1006F000032362689B079A4205D05B429A4202D06C
:100700005B009A4209D10A69920092080A61216845
:100710000A6963681A430A610CE00A699200920848
:100720000A6181680F229204914381608168626846
:10073000114381602168CA6818239A43CA602168FE
:10074000CA68A3681A43CA608168012252069143AD
:1007500081608168A28E52061143816020688168A1
:10076000C90004D481680122120711438160206806
:10077000C168394A1140C1602069E168022825D06A
:1007800000200143204620300278037B52035B00A7
:100790001A431143226B1143A26992031143E26988
:1007A000D20311432268D3681943D160616A0A46B3
:1007B000FF3AC23A05D0A26A11432268D3681943AE
:1007C000D16042780121012A02D00BE00420D8E751
:1007D0000078002823D0606D202210436065A06D52
:1007E0000843A065E06B012820681FD00169C90794
:1007F00003D0016949084900016120684169C908BD
:10080000C900416120684169A26B11434161A5653E
:10081000606D80088000401C6065002070BD20680D
:10082000C26801231B041A43C260DBE70269FF238D
:100830009B009A43026120680269236CA66C1A43EC
:10084000636C33431A430261206802690A43026100
:10085000D3E70000002701401902FEFF10B586B063
:10086000044614216846FFF7B7FC0D49206888420A
:1008700014D10C48416B421511434163C26A0221F5
:100880000A43C262C06A00910840059003200190AB
:10089000002002906946044800F0ACF806B010BD94
:1008A000002401400010024000040050F8B5044646
:1008B0004069254640350E4608280BD02068C068A0
:1008C000C00709D0606D20210843606500202874AE
:1008D0000120F8BD082700E00C2700F067F9009020
:1008E00015E0701C13D0002E05D000F05FF90099C0
:1008F000401AB0420BD920680068384207D1606DB9
:10090000042108436065002028740320F8BD206896
:1009100000683842E5D0606D0121490208436065F6
:100920002068C16809058A0F0C21002A1BD12022EA
:10093000125D002A17D10268120714D58268530786
:100940000122002B08DB43688B434360606D130278
:1009500098431043606506E0606D2023184360658E
:10096000A06D1043A065A069002801D12068016036
:100970000020F8BD70B50446216800208968490749
:1009800021D425464035297C01291CD00121297418
:10099000E169012904D02046FFF7F4FD002811D1B8
:1009A000616D0A4A1140FF22013211436165002145
:1009B000A165297422681C21116021688A680423BA
:1009C0001A438A6070BD022070BD0000FEF1FFFF77
:1009D00070B5044600F0EAF80546601C02D00448F1
:1009E0000078241800F0E2F8401BA042FAD370BD52
:1009F0000C000020F8B5002303240125B8E032469E
:100A00002E469E40B446324079D00E79B607B60FD6
:100A1000012E01D0022E17D186682746B6465E0009
:100A2000B74000967646BE43B646CF68009EB740B4
:100A300076463743876046686746BE430F79FF06B0
:100A4000FF0F9F40374347600E79F643B6070ED03D
:100A5000C6682746B4465E00B646B7406646BE4303
:100A6000B4468F687646B74066463743C7600E790E
:100A7000B607B60F022E14D1DE08B600361800965F
:100A8000366A5F07B446FE0E0F27B646B740664685
:100A9000BE43B4460F697646B74066463743009E6C
:100AA000376206682746B4465E00B646B7406646DB
:100AB000BE430F79B446BF07BF0F7646B7406646C0
:100AC000374307604E68B603B60F50D02B4F7E6B8E
:100AD0002E437E639F082A4EBF00BE190096B6685B
:100AE0000F27B4469E07360FB646B7406646BE434C
:100AF00005273F07B446B84202D1002710E036E090
:100B0000204FB84201D101270AE01F4FB84201D15E
:100B1000022705E01D4FB84201D1052700E0062756
:100B20007646B74066463743009EB760184EB668B3
:100B30004F689643FF0200D51643154FBE60FE680E
:100B40004F689643BF0200D51643114FFE607E6882
:100B50004F689643BF0300D516430D4F7E603E6835
:100B60004F689643FF0300D51643094A16605B1C85
:100B70000A681646DA4000D041E7F8BD001002408E
:100B8000000001400004005000080050001C00500C
:100B9000000401400069084000D001207047002A8D
:100BA00001D0816170478162704700000148806810
:100BB000704700000C000020024881680278891804
:100BC000816070470C00002010B5084800240168BF
:100BD000402211430160032000F00AF8002801D0F0
:100BE000012401E000F026F8204610BD002002405C
:100BF00070B504460D4D7D202978C000FFF7EEFA50
:100C000001460B480068FFF7E9FA00F047FB0028AF
:100C100009D1042C07D200222146401E00F016F80C
:100C200000206C6070BD012070BD00000C00002031
:100C3000180000200448416B012211434163816B7D
:100C400002041143816370470010024010B500F0A8
:100C5000FDFB10BDF8B50E46050038D05E480068B3
:100C6000C007C00FB04214D25B4C2068400840005F
:100C700030432060FFF79AFF074605E0FFF796FF35
:100C8000C11B564881427AD82068C007C00FB042C5
:100C9000F4D12878524C800705D5E068F0218843CC
:100CA000A9680843E0602878C00752D06868022825
:100CB00006D0032807D0216801280AD0890504E05E
:100CC0002168890301E021688901002903DB0120F3
:100CD000F8BD4907F9E7E168890889000143E16047
:100CE000FFF764FF0746686802280AD0032814D07B
:100CF00001281ED029E0FFF759FFC11B3748814268
:100D00003DD8E0680007800F0228F4D121E0FFF70A
:100D10004DFFC11B3148814231D8E0680007800F88
:100D20000328F4D115E0FFF741FFC11B2B48814296
:100D300025D8E0680007800F0128F4D109E0FFF70B
:100D400035FFC11B2548814219D8E0680007800F94
:100D5000F5D121480168C907C90FB14217D9016807
:100D60004908490031430160FFF720FF074608E0CA
:100D700005E0FFF71BFFC11B1848814201D9032082
:100D8000F8BD15480068C007C00FB042F1D12878FF
:100D9000400706D5E068072109028843E96808434F
:100DA000E0602878000707D5E0680721C90288437A
:100DB0002969C9000843E06000F01AF8E168094AAF
:100DC0000906090F515CC8400749086007480068D8
:100DD000FFF70EFFF8BD000000200240881300005E
:100DE00000100240A017000818000020100000208A
:100DF00010B5184AD1680C20084004280BD00828E8
:100E000010D00C2810D050680004410F0120C003FE
:100E1000491C884010BD1068C00601D50E4810BDA1
:100E20000E4810BD0E4810BD88020E4B000F185C16
:100E30000902D368890F491CDB0301D5084A05E084
:100E40001268D20601D5044A00E0044A5043FFF775
:100E5000C5F910BD0010024000093D000024F40057
:100E600000127A00B0170008FEB505007ED0F74CDE
:100E7000E7680C20E6680740012000040640287857
:100E8000C00747D0082F05D00C2F0AD1012000043D
:100E9000864206D1206880033CD568680028E5D0EA
:100EA00038E0012069680004814203D121680143D0
:100EB000216011E0052301221B049204994221685C
:100EC00002D111432160F1E7814321602168014093
:100ED0000091206890432060686800280DD0FFF7DB
:100EE00065FE009005E0FFF761FE0099401A642856
:100EF0007ED820688003F6D50CE0FFF757FE0090FF
:100F000005E0FFF753FE0099401A6428F0D82068E6
:100F10008003F6D4287880075DD5E868810604D57B
:100F2000226820210A43226088430923042F0DD020
:100F30000C2F01D1002E09D000283CD02168994304
:100F400001432160FFF732FE064628E02168490789
:100F500001D500288AD061681F22120291432A69B4
:100F60001202114361602168994300E091E101435D
:100F70002160FFF73DFFE16809060A0FB449895C6B
:100F8000C840B4490860B4480068FFF731FE002843
:100F900074D120E0FFF70AFE801B0228A8D8206841
:100FA0004007F7D560681F210902884329690902B3
:100FB000084360600FE02068400840002060FFF7B1
:100FC000F5FD064604E0FFF7F1FD801B02288FD8EF
:100FD00020684007F7D42878C00661D5002F0DD0CF
:100FE000A86900284BD02068FF210131084300E0A8
:100FF000C6E02060FFF7DAFD06462DE02068800598
:1010000002D5A8690028A5D0606807214903884354
:10101000296A084360606068297F0002000A0906A7
:1010200008436060286A410B0120C003491C8840C6
:10103000E16809060A0F8649895CC840854908604D
:1010400085480068FFF7D4FD002817D128E0FFF796
:10105000ADFD801B0228A1D820688005F7D5606807
:10106000072149038843296A084360606068297F33
:101070000002000A09060843606011E0E1E021680F
:10108000FF20013081432160FFF790FD064604E018
:10109000FFF78CFD801B022872D820688005F7D4EA
:1010A00028786E4E000724D568690028306910D072
:1010B000012108433061FFF779FD009005E0FFF75B
:1010C00075FD0099401A02285AD830698007F6D574
:1010D0000FE0400840003061FFF768FD009005E038
:1010E000FFF764FD0099401A022849D8306980074B
:1010F000F6D42878400765D500200290A06BC00088
:1011000006D4A06B012109070843A06301200290C7
:1011100053480168C90511D4016882151143016063
:10112000FFF744FD009005E0FFF740FD0099401AED
:10113000642825D84A480068C005F5D5FF20AA686C
:101140000130824203D131690143316111E0012153
:101150008902002A07D005231B029A4203D1326973
:101160000A433261EFE73269824332613069884372
:101170003061A86800280FD0FFF718FD009007E045
:101180005EE0FFF713FD0099411A3648814257D8B7
:1011900030698005F5D50DE0FFF708FD009006E009
:1011A000FFF704FD0099411A2E48814248D8306962
:1011B0008005F5D40298002804D0A06B012109070E
:1011C0008843A063686A002865D00C2F4CD00126A4
:1011D00036060228206805D0B0432060FFF7E6FC01
:1011E00005462FE0B0432060FFF7E0FC074604E02F
:1011F000FFF7DCFCC01B022822D820688001F7D44E
:10120000E96AA86AE2680843296BFD231B049A4334
:1012100011430843E060206830432060FFF7C6FCBC
:10122000054604E0FFF7C2FC401B022808D82068EE
:101230008001F7D52FE0FFF7B9FC401B022801D948
:101240000320FEBD20688001F5D424E00010024098
:10125000A0170008180000201000002040100240D5
:1012600000700040881300000128EAD0E0680121E6
:101270000904AA6A014091420BD10F218904EA6A4C
:101280000140914205D1032189050840296B88421C
:1012900001D00120FEBD0020FEBD0000094910B5AF
:1012A000401E884201D9012010BD074C6061032116
:1012B000081F00F0CBF80020A0610720206100206B
:1012C00010BD0000FFFFFF0000E000E0FEE70000AF
:1012D0001CB5002119480091174A01910260C163B1
:1012E0008160032201238163920703614260024609
:1012F000C16020321170FF245170C2344462816297
:10130000117301638161042243634261C161FFF78C
:10131000C1F9002801D0FFF76DF9094800900120BC
:101320000003019069460548FFF766F9002801D0DF
:10133000FFF760F91CBD0000002401401C000020E4
:1013400000020024F0B587B014216846FEF744FF80
:101350001B48C16A01252943C162C16A2940059120
:10136000C26A02210A43C262C06A164E08400527BB
:101370003F070590002231463846FFF710FC002257
:10138000C8211148FFF70BFC812000240090019434
:10139000694602943846FFF72DFB029469463846A9
:1013A000009601950394FFF725FBC8200090029456
:1013B0006946019503940448FFF71CFB07B0F0BD94
:1013C000001002401880000000040050FEE7704743
:1013D000704710B5FFF7F0FB10BD000010B592B0DC
:1013E00034216846FEF7F8FE14210DA8FEF7F4FE3E
:1013F000144801680322D2029143C2148918016083
:101400001020009001200690052000244003089041
:10141000079409946846FFF727FD002801D072B6AB
:10142000FEE70F200D900E940F941094002111945C
:101430000DA8FFF70FFC002801D072B6FEE712B02E
:1014400010BD000000700040704700008307FF22BD
:10145000DB0E9A408907090E9940002808DB8308B3
:1014600009489B001B181868904308431860704790
:101470000007000F0838830804489B001B18D86930
:1014800090430843D861704700E400E000ED00E0BD
:1014900070B53449344A012505264118ED03360755
:1014A000324C914201D2012254E0314907224118C5
:1014B0005204914214D2012229463046FFF76FFBB5
:1014C000012208212046FFF76AFB00224021204626
:1014D000FFF765FB002280212046FFF760FB70BD0F
:1014E0002449254A411891420BD20122294630460F
:1014F000FFF755FB012208212046FFF750FB012290
:10150000E4E71E4940181E49884210D801222946A6
:101510003046FFF744FB012208212046FFF73FFB3E
:10152000012240212046FFF73AFB0122D3E7FFF7D3
:101530003DFB144A7D239168DB00411A994205D98D
:10154000D17800290CD00021D1709060D07800288B
:10155000A9D1002229463046FFF721FB0022B0E73F
:101560000121F1E70000D8BD9A9921000004005044
:101570006666B6BD6666A8BD666608000000A0BDCA
:1015800033330B000000002010B505208021000738
:10159000FFF700FB0446FFF709FB1049002C06D0BB
:1015A0004878012802D100204870887010BD4A7820
:1015B000002A0ED04A680A4B821A9A42F6D90A7853
:1015C000002A09D000220A707D22D20080184860CB
:1015D00010BD48600120E7E70122F4E70000002089
:1015E000B80B0000FFF7F0FAFFF7F8FEFFF7AAFECE
:1015F000FFF76EFE05263607002210213046FFF762
:10160000CEFA01210022C9033046FFF7C8FA334C55
:10161000002208212046FFF7C2FA0022402120467E
:10162000FFF7BDFA002280212046FFF7B8FA2C4DC3
:101630002C48FFF79FF90021C9432A48FFF736F9E4
:101640002848FFF723F8FEF74DFF2749FEF776FEFF
:10165000264900F04DF80746FFF796FF2878012845
:1016600016D001210022C9033046FFF798FA002264
:1016700008212046FFF793FA002240212046FFF779
:101680008EFA002280212046FFF789FA002218E016
:10169000A87801281DD001210022C9033046FFF798
:1016A0007EFA002208212046FFF779FA0022402125
:1016B0002046FFF774FA002280212046FFF76FFAD8
:1016C000012210213046FFF76AFA3220FFF780F935
:1016D000AEE73846FFF7DCFEF2E7000000040050FA
:1016E000000000201C00002000F07F450000684240
:1016F00070B5420064414B005C41120E39D01B0EA4
:1017000038D0FF2A3CD0FF2B3AD040024902400A91
:10171000490A060045184E43000A090AD2184843F0
:10172000ED017F3A0104731A4019190C4318990FFF
:1017300004D001215B0849075B1A521CD80904D365
:10174000401CF50301D19D0607D0FF2A08D2D5051C
:1017500006D0E4072043401970BD0125A843F4E7F3
:10176000002A01DCE00770BD2402FF202043C005F1
:1017700070BD1B0EFF2A03D0FF2B01D0E00770BD08
:10178000FF2645003606B54206D84D00B54203D8BF
:10179000D218FF2A00D0E7E7004870BD0000C07FE4
:1017A0000000000000000000010203040607080911
:1017B000030406080C1018203081828384858687F4
:1017C00088898B8C8D8E8F919293959697999A9C00
:1017D0009D9FA0A2A3A5A7A8AAACAEB0B2B3B5B76F
:1017E000B9BCBEC0C2C5C7C9CCCED1D4D7D9DCDF45
:1017F000E2E6E9ECF0F3F7FAFE0000001C1800083E
:10180000000000201C000000040100083818000837
:101810001C000020BC0600002001000801000000A0
:1018200000000000000000000100000004000000B3
:08183000000000000000200090
:04000005080000C12E
:00000001FF
